:100000000C9484010C94F2060C94A1010C94A101AF
:100010000C94A1010C94A1010C94A1010C94A101D8
:100020000C94A1010C94A1010C948B0B0C94C90BA2
:100030000C94A1010C94A1010C94A1010C94A101B8
:100040000C94A1010C94B7050C94A1010C94A1018E
:100050000C94A1010C94A1010C94A1010C94A10198
:100060000C94A1010C94A1010C94A1010C94A10188
:100070000C94A1010C94A1010C94A1010C94A10178
:100080000C94A1010C94A1010C94A1010C94A10168
:100090000C94A1010C94A1010C94A1010C94A10158
:1000A0000C94A1010C94A1010C94A101F602BF03D0
:1000B000BF03BF03BF03A903BF03BF03BF03BF0346
:1000C000BF03BF03BF03BF03BF03BF037B03BF0364
:1000D0008203BF03BF03BF03BF03BF03BF03BF034D
:1000E000BF03BF03BF03BF03BF03BF03BF03BF0300
:1000F000BF03BF03B603BF03BF03BF03BF03BF03F9
:10010000BF03BF03BF03BF03BF03BF03BF03BF03DF
:10011000BF03BF03BF03BF03BF03BF03BF03BF03CF
:10012000BF03BF03BF03BF03BF03BF03BF03BF03BF
:10013000BF03BF03BF03BF033A03BF03BF033003C3
:100140004E032503BF03BF039203BF03BF03BF03D7
:10015000BF03BF0359036A0343031A03110399033F
:10016000BF03BF030703BF0300038903BF03BF032C
:10017000BF03BF03BF03BF03BF03BF03BF03BF036F
:10018000BF03BF03BF03BF03BF03BF03BF03BF035F
:10019000BF03BF03BF03BF03BF03BF03BF03BF034F
:1001A000BF03BF03BF03BF03BF03BF03BF03BF033F
:1001B000BF03BF03BF03BF03BF03BF03BF03BF032F
:1001C000BF03BF03BF03BF03BF03BF03BF03BF031F
:1001D000BF03BF03BF03BF03BF03BF03BF03BF030F
:1001E000BF03BF03BF03BF03BF03BF03BF03BF03FF
:1001F000BF03BF03BF03BF03BF03BF03BF03BF03EF
:10020000BF03BF03BF03BF03BF03BF03BF03BF03DE
:10021000BF03BF03BF03BF03BF03BF03BF03BF03CE
:10022000BF03BF03BF03BF03BF03BF03BF03BF03BE
:10023000BF03BF03B603000100006A021200020000
:10024000007C024300030000BF020401030904C351
:10025000021402030904D9021E03030904F9020C63
:100260000001C11201803601813612010002020034
:100270000010ADDEFEAF00010102030109024300E0
:10028000020100C03209040000010202010005243D
:1002900000100105240101010424020605240600C2
:1002A000010705820310004009040100020A000052
:1002B0000007050302400000070584024000000417
:1002C000030904140363006E0063004000730068B8
:1002D00000610063006B0000001E035500530042E4
:1002E000002000530065007200690061006C00206E
:1002F0000043004E00430000000C03300030003883
:10030000003100350000000011241FBECFEFDAE0FD
:10031000DEBFCDBF17E0A0E0B1E0E8E9FCE102C03C
:1003200005900D92AE38B107D9F727E0AEE8B7E0F7
:1003300001C01D92AA3AB207E1F70E9403060C948D
:100340004A0E0C940000CF93DF93EAE7F0E090812F
:100350009F77908390819F7B9083883009F475C04C
:1003600078F48430D1F130F48823F1F0813009F051
:10037000F9C025C0863009F44CC008F058C03BC015
:100380008B3009F489C038F4893009F469C08A30A7
:1003900009F0E8C073C08D3009F49AC008F48AC02F
:1003A000843109F0DFC0A2C0ECE7F0E08081807EFC
:1003B0008083EBE7F0E080818F7D8083A4C0ECE751
:1003C000F0E08081817E8083808181608083EBE7A3
:1003D000F0E080818F7D808396C0ECE7F0E0808143
:1003E000847E8083808184608083EBE7F0E080817D
:1003F0008F7D808388C0ECE7F0E08081856080831A
:100400008081857E8083EBE7F0E080818F7D808333
:100410007AC0ECE7F0E08081866080838081867E10
:100420008083EBE7F0E080818F7D80836CC0ECE718
:10043000F0E08081876080838081877E8083EBE726
:10044000F0E080818F7D80835EC0ECE7F0E080810A
:10045000807E8083EBE7F0E080818062808353C000
:10046000ECE7F0E08081817E808380818160808301
:10047000EBE7F0E080818062808345C0ECE7F0E04C
:100480008081827E8083808182608083EBE7F0E0E0
:1004900080818062808337C0ECE7F0E08081837EDA
:1004A0008083808183608083EBE7F0E080818062DD
:1004B000808329C0ECE7F0E08081847E80838081A6
:1004C00084608083EBE7F0E08081806280831BC0E2
:1004D000ECE7F0E08081857E808380818560808389
:1004E000EBE7F0E08081806280830DC0ECE7F0E014
:1004F0008081877E8083808187608083EBE7F0E066
:10050000808180628083EAE7F0E080818068808378
:10051000808180648083808186FDFDCF1092790088
:100520001092780044E080E090E0DC01EAE7F0E03F
:10053000C8E7D0E0208120642083208126FDFDCF04
:1005400028813981820F931FA11DB11D415091F760
:10055000B695A79597958795B695A79597958795FD
:100560009C0102C020E030E0822F932FDF91CF91D9
:100570000895ECE7F0E0808180648083808180686A
:10058000808380B38C7F80BB80818F7D80838081DE
:10059000877E8083808187608083ABE7B0E08C9129
:1005A00080628C93EAE7F0E08081876080838081BD
:1005B0008F7D80838C9180688C938081806880831C
:1005C000808180648083808186FDFDCF0895CF93F4
:1005D000DF93FC01808190E0FC017B97E53CF10515
:1005E00008F0CDC0EA5AFF4F0C949F0D10928E0771
:1005F00081E080938F078AE091E00E94510DC3C093
:100600007698469A80E291E00E94510DBCC061E06C
:1006100070E080E090E00E949A078EE50E942F0B28
:10062000B2C06FEF7FEFCB010E949A0786E70E946E
:100630002F0BA9C068EC70E080E090E00E949A0760
:1006400083E391E00E94510D9EC068E37FEF8FEF3E
:100650009FEF0E949A078BE391E00E94510D93C097
:1006600061E070E080E090E00E941B088CE30E9453
:100670002F0B89C06FEF7FEFCB010E941B088EE329
:100680000E942F0B80C068E37FEF8FEF9FEF0E94E7
:100690001B0883E491E00E94510D75C068EC70E086
:1006A00080E090E00E941B088BE491E00E94510DD5
:1006B0006AC068EC70E080E090E00E949A0768EC05
:1006C00070E080E090E00E941B0883E591E00E94CA
:1006D000510D59C068E37FEF8FEF9FEF0E949A079B
:1006E00068E37FEF8FEF9FEF0E941B0887E691E0A2
:1006F0000E94510D48C064E170E080E090E00E94EB
:100700009C0841C06CEE7FEF8FEF9FEF0E949C082A
:100710003AC080E090E00E949B0A89E791E00E9445
:10072000510D31C00E948E0A88E891E00E94510D5F
:100730002AC080E00E94A301EC010E949B0A8CE980
:1007400091E00E94510DBE0180E090E00E945F0D9B
:100750001AC060EE71EB8FEF9FEF0E949A0760EE78
:1007600071EB8FEF9FEF0E941B080DC082EB91E0B1
:100770000E94510D8DEB91E00E94510D04C083E762
:1007800093E00E94510DDF91CF910895CF93DF93B5
:10079000EC0180918E07882321F0CE010E94E702B0
:1007A00035C143E050E066E973E0CE010E94E30DFD
:1007B000282F392F232B39F481E080938F078AE982
:1007C00093E00E94510D80918F07882309F417C18F
:1007D00088818F3359F044E050E066EB73E0CE013E
:1007E0000E94E30D282F392F232B29F48BEB93E064
:1007F0000E94510D0BC146E050E06AE675E0CE0163
:100800000E94E30D282F392F232B69F481E795E00F
:100810000E94510D0E94EE050E945F0D87E995E050
:100820000E94510DF3C046E050E06BE775E0CE0149
:100830000E94E30D282F392F232B31F4769A82E87A
:1008400095E00E94510DE2C047E050E06BE975E091
:10085000CE010E94E30D282F392F232B31F47698F7
:1008600083EA95E00E94510DD1C046E050E06CEB68
:1008700075E0CE010E94E30D282F392F232B89F438
:10088000CE0106960E94BC0D9B01AC01A8ECB0E025
:100890000E94A50D0E949A0786E995E00E94510DDD
:1008A000B5C046E050E063EC75E0CE010E94E30D78
:1008B000282F392F232B89F4CE0106960E94BC0DD8
:1008C0009B01AC01A8ECB0E00E94A50D0E941B08A2
:1008D00086E995E00E94510D99C046E050E06AEC2F
:1008E00075E0CE010E94E30D282F392F232B89F4C8
:1008F000CE0106960E94BC0D9B01AC01A8ECB0E0B5
:100900000E94A50D0E949C0886E995E00E94510D69
:100910007DC044E050E061ED75E0CE010E94E30D42
:10092000282F392F232BE9F4CAE084E690E00E94B7
:10093000F70586ED95E00E94510D84E10E94A30128
:100940000F96BC0180E090E00E945F0D8AEE95E07A
:100950000E94510DC15049F787E995E00E94510D61
:1009600055C045E050E06EEE75E0CE010E94E30D0B
:10097000282F392F232B51F481E080938E0710927A
:100980008F0784EF95E00E94510D40C044E050E095
:1009900063E276E0CE010E94E30D282F392F232B4E
:1009A00039F410928F0788E296E00E94510D2EC014
:1009B00044E050E06FE376E0CE010E94E30D282F83
:1009C000392F232B39F484E496E00E94510D0E94C4
:1009D00083061CC043E050E066E973E0CE010E944C
:1009E000E30D282F392F232B29F487E995E00E9466
:1009F000510D0CC08AED96E00E94510D07C0CE014A
:100A00000E94510D8DEF96E00E94510DDF91CF9124
:100A10000895109280008BE08093810010928200F4
:100A200010928500109284008AEF90E090938900E4
:100A30008093880082E080936F00089580919E07E4
:100A400090919F07A091A007B091A10718161906D1
:100A50001A061B0674F40197A109B10980939E0739
:100A600090939F07A093A007B093A1070E9434071B
:100A70000FC0BB236CF40196A11DB11D80939E078E
:100A800090939F07A093A007B093A1070E946707C8
:100A900080919A0790919B07A0919C07B0919D0728
:100AA000181619061A061B0674F40197A109B10954
:100AB00080939A0790939B07A0939C07B0939D0700
:100AC0000E94B5070FC0BB236CF40196A11DB11D98
:100AD00080939A0790939B07A0939C07B0939D07E0
:100AE0000E94E8078091960790919707A091980738
:100AF000B0919907181619061A061B0674F4019787
:100B0000A109B1098093960790939707A09398073E
:100B1000B09399070E9436080895BB236CF40196A0
:100B2000A11DB11D8093960790939707A0939807F6
:100B3000B09399070E946908089580919007909159
:100B400091070196909391078093900780E00E940F
:100B5000A30120919007309191072817390730F0B1
:100B600010929107109290070E941E0508951F92FF
:100B70000F920FB60F9211242F933F934F935F93D1
:100B80006F937F938F939F93AF93BF93EF93FF9355
:100B90008091920790919307A0919407B091950747
:100BA0000196A11DB11D8093920790939307A09386
:100BB0009407B09395070E949D05FF91EF91BF9117
:100BC000AF919F918F917F916F915F914F913F91E5
:100BD0002F910F900FBE0F901F9018956091920764
:100BE00070919307809194079091950708950097CD
:100BF00049F00197EFE9FFE03197F1F700C00000FD
:100C00000097B9F70895CF93DF93CDB7DEB7CA5FEA
:100C1000D1090FB6F894DEBF0FBECDBF80E890E0DB
:100C20000FB6F89480936100909361000FBE85BF6A
:100C300085BF6E9A8FEF84B98AB1806F8AB93F9A67
:100C40003E9A0E94B9020E94BA0A0E9409058AEFE0
:100C500090E00E94F705469A5098589AE9E6F0E02D
:100C600080818C7F80838AE090E00E94F705E89A7B
:100C70008AE090E00E94F705FE0131968AEFDF01DD
:100C80001D928A95E9F700E010E06F010F2EFAEF50
:100C90009F2EF02DA12CB12C01C089010E94FF0ACA
:100CA0008823E1F30E94D30A7601E00EF11EF701DA
:100CB00080830E942F0B0E94190B98012F5F3F4FDA
:100CC000D7018C918F3731F42230310538F09801FB
:100CD000215031092431310540F401C09501FE0154
:100CE000E20FF31F80818D30C1F6FE01E20FF31F8A
:100CF0001082C6010E94C603F601892D11928A95C1
:100D0000E9F78501CBCF85B7816085BF85B7826064
:100D100085BF10926E0010926F001092720084EFE7
:100D200091E00E94F7050C94001C089581E00E9458
:100D3000A3019C01235431092138310530F488E2A4
:100D400097E00E94510D81E008959C01295C3109D2
:100D50002D37310530F483E397E00E94510D82E096
:100D600008959C01275431402C37310530F48EE32F
:100D700097E00E94510D83E008959C01235C31406F
:100D80002936310530F489E497E00E94510D84E062
:100D900008959C012C5232402D37310530F484E502
:100DA00097E00E94510D85E008959C01295A324038
:100DB0002238310530F48FE597E00E94510D86E02E
:100DC00008958B5293408B37910530F48AE697E073
:100DD0000E94510D87E0089585E797E00E94510D2C
:100DE00080E008951F920F920FB60F9211242F9357
:100DF0003F934F935F936F937F938F939F93AF93A3
:100E0000BF93EF93FF93469880E090E00E949B0A87
:100E100010929607109297071092980710929907D0
:100E200010929A0710929B0710929C0710929D07B0
:100E300010929E0710929F071092A0071092A10790
:100E4000769A0E949606FF91EF91BF91AF919F9184
:100E50008F917F916F915F914F913F912F910F9063
:100E60000FBE0F901F90189580910201823099F06B
:100E700018F4813059F505C08330B9F0843031F56C
:100E80001EC02898299A2A9A2B98809102018F5F78
:100E9000809302010895289829982A9A2B9A809184
:100EA00002018F5F809302010895289A29982A9859
:100EB0002B9A809102018F5F809302010895289AF6
:100EC000299A2A982B9881E08093020108958091B5
:100ED0000201823089F018F4813059F505C0833061
:100EE000A9F0843031F51CC0289A29982A982B9AA9
:100EF00084E0809302010895289A299A2A982B98D1
:100F00008091020181508093020108952898299AC6
:100F10002A9A2B98809102018150809302010895B2
:100F2000289829982A9A2B9A8091020181508093BF
:100F3000020108950F931F9300919E0710919F0740
:100F40002091A0073091A107DC01CB01800F911FF8
:100F5000A21FB31F80939E0790939F07A093A007A3
:100F6000B093A1071F910F910895809101018230E4
:100F700099F018F4813059F505C08330B9F0843008
:100F800031F51EC02C982D9A2E9A2F988091010130
:100F90008F5F8093010108952C982D982E9A2F9A97
:100FA000809101018F5F8093010108952C9A2D9803
:100FB0002E982F9A809101018F5F809301010895EF
:100FC0002C9A2D9A2E982F9881E0809301010895F4
:100FD00080910101823089F018F4813059F505C003
:100FE0008330A9F0843031F51CC02C9A2D982E98AE
:100FF0002F9A84E08093010108952C9A2D9A2E98BF
:101000002F988091010181508093010108952C98BF
:101010002D9A2E9A2F988091010181508093010181
:1010200008952C982D982E9A2F9A80910101815025
:101030008093010108950F931F9300919A071091D7
:101040009B0720919C0730919D07DC01CB01800F0D
:10105000911FA21FB31F80939A0790939B07A093A1
:101060009C07B0939D071F910F91089580910001F7
:10107000823099F018F4813059F505C08330B9F009
:10108000843031F51EC05C985D9A5E9A5F988091BD
:1010900000018F5F8093000108955C985D985E9ACF
:1010A0005F9A809100018F5F8093000108955C9AA0
:1010B0005D985E985F9A809100018F5F8093000138
:1010C00008955C9A5D9A5E985F9881E08093000134
:1010D000089580910101823089F018F4813059F52A
:1010E00005C08330A9F0843031F51CC05C9A5D984E
:1010F0005E985F9A84E08093000108955C9A5D9AFF
:101100005E985F988091000181508093000108955E
:101110005C985D9A5E9A5F988091000181508093FF
:10112000000108955C985D985E9A5F9A8091000135
:1011300081508093000108950F931F9300919607AB
:10114000109197072091980730919907DC01CB0106
:10115000800F911FA21FB31F80939607909397074C
:10116000A0939807B09399071F910F91089520912C
:10117000A2073091A3074091A4075091A507DC0175
:101180000E94A50DDC01CB01072E79E0B695A7954D
:10119000979587957A95D1F7702D492F5A2F6B2FF8
:1011A00077274093BF008093CF000895E0ECF0E0F4
:1011B0008081806880830895E0ECF0E080818F7703
:1011C000808308959B01AC0160E07CE68CED92E0A9
:1011D0000E947D0D2F3F63E036074105510550F415
:1011E0002093A2073093A3074093A4075093A50729
:1011F00081E071C12E3F67E036074105510580F45B
:10120000DA01C901B695A795979587958093A207AE
:101210009093A307A093A407B093A50782E05BC1B6
:101220002C3F6FE0360741055105A0F4DA01C901F2
:10123000B695A79597958795B695A7959795879510
:101240008093A2079093A307A093A407B093A50748
:1012500083E041C1283F6FE1360741055105A0F405
:10126000DA01C901689412F8B695A7959795879504
:101270001694D1F78093A2079093A307A093A40795
:10128000B093A50784E027C1203F6FE336074105EF
:101290005105A0F4DA01C901689413F8B695A79531
:1012A000979587951694D1F78093A2079093A307FB
:1012B000A093A407B093A50785E00DC1203E6FE77A
:1012C000360741055105A0F4DA01C901689414F804
:1012D000B695A795979587951694D1F78093A20711
:1012E0009093A307A093A407B093A50786E0F3C04B
:1012F000203C6FEF360741055105A0F4DA01C90122
:10130000689415F8B695A795979587951694D1F793
:101310008093A2079093A307A093A407B093A50777
:1013200087E0D9C020386FEF360761E046075105E6
:10133000A0F4DA01C901689416F8B695A7959795B7
:1013400087951694D1F78093A2079093A307A09353
:10135000A407B093A50788E0BEC021156FEF36073C
:1013600063E04607510570F4BB27A52F942F832F08
:101370008093A2079093A307A093A407B093A50717
:1013800089E0A9C021156EEF360767E046075105D1
:10139000A8F4DA01C901072E79E0B695A7959795CB
:1013A00087957A95D1F7702D8093A2079093A30724
:1013B000A093A407B093A5078AE08DC021156CEF18
:1013C00036076FE046075105A8F4DA01C901072E78
:1013D0007AE0B695A795979587957A95D1F7702D70
:1013E0008093A2079093A307A093A407B093A507A7
:1013F0008BE071C0211568EF36076FE14607510594
:10140000A8F4DA01C901072E7BE0B695A795979558
:1014100087957A95D1F7702D8093A2079093A307B3
:10142000A093A407B093A5078CE055C0211560EFE9
:1014300036076FE346075105A8F4DA01C901072E04
:101440007CE0B695A795979587957A95D1F7702DFD
:101450008093A2079093A307A093A407B093A50736
:101460008DE039C0211560EE36076FE7460751055C
:10147000A8F4DA01C901072E7DE0B695A7959795E6
:1014800087957A95D1F7702D8093A2079093A30743
:10149000A093A407B093A5078EE01DC0211560ECB2
:1014A00036076FEF46075105A8F4DA01C901072E88
:1014B0007EE0B695A795979587957A95D1F7702D8B
:1014C0008093A2079093A307A093A407B093A507C6
:1014D0008FE001C080E08093C1008091A2079091CD
:1014E000A307A091A407B091A507892F9A2FAB2F2E
:1014F000BB278093BF008091A2078093D1000895FD
:1015000022E02093C00020E42093C40021E0209337
:10151000C3001092C2000E94E208089560E177E2E1
:1015200080E090E00E94800A80E092E00E94B7088C
:101530000E94D6080895CF93DF93EC01009739F409
:1015400080E090E00E94B7080E94DC0810C0C13023
:1015500084E0D80730F40E94D608CE010E94B70874
:1015600006C00E94D60880E094E00E94B708DF9190
:10157000CF91089581E08093D70080EA8093D800CE
:1015800082E189BD09B400FEFDCF80E98093D800D7
:101590001092E0001092A7071092A8078CE08093A9
:1015A000E200789408952FB7F8948091A7078111ED
:1015B00003C02FBF8FEF089583E08093E9008091EF
:1015C000E80085FD11C082FD04C00BC082FD04C08F
:1015D00008C0E8EEF0E09BE69083808185FFF6CFBF
:1015E00003C02FBF8FEF08958091F1009091E80024
:1015F00095FD03C09BE69093E8002FBF08959FB729
:10160000F8948091A707882389F083E08093E9000C
:101610008091F20081110BC02091E80022FF07C0E9
:1016200025FD05C02BE62093E80001C080E09FBFA8
:1016300008958091A707882389F02FB7F89483E055
:101640008093E9008091E80085FF07C0E8EEF0E0B4
:101650009BE69083808185FDFCCF2FBF0895CF93BB
:10166000DF939091A707992309F44DC09FB7F89491
:1016700024E02093E9002091A907222349F020913A
:10168000E80025FD03C09FBF8FEF42C01092A9075D
:101690003091E400375E2091E80025FD25C09FBF12
:1016A0009091E400931749F09091A70791110FC012
:1016B0002CC09FBF9881931305C081E08093A90738
:1016C0008FEF26C09091A707911108C020C0A9EE06
:1016D000B0E044E0E8EEF0E0C4EED0E09FB7F8946C
:1016E0004C93208125FFE5CF8093F1008091E800A5
:1016F00085FD03C08AE38093E80085E08093A60718
:101700009FBF80E005C08FEF03C08FEF01C08FEF58
:10171000DF91CF9108951F920F920FB60F9211246F
:101720008F939F93EF93FF93E1EEF0E0808110821F
:1017300083FF11C01092E90091E09093EB001092AA
:10174000EC0092E19093ED0098E09093F0001092FD
:10175000A7071092A80782FF13C08091A7078823CC
:1017600079F08091A607882359F081508093A607CD
:10177000811106C084E08093E9008AE38093E80049
:10178000FF91EF919F918F910F900FBE0F901F903F
:1017900018951F920F920FB60F9211240F931F935B
:1017A0002F933F934F935F936F937F938F939F9369
:1017B000AF93BF93CF93DF93EF93FF931092E90022
:1017C0008091E80083FF51C1E1EFF0E0708140813A
:1017D00020813081932F80E0DC01A22B9D0150817C
:1017E0006081962F80E0852BA081B08152EF5093CD
:1017F000E800463009F05CC004C081E28093EB0051
:101800003BC1C6E046E352E0FA01659174912617A8
:10181000370719F0495F5F4F20C0FA013296659192
:1018200074918617970719F0495F5F4F16C0FA0148
:10183000349685919491282F392FFA013696449148
:101840009B2F80E08A2B8F3F910519F010F08FEFCE
:1018500090E0841728F4482F03C0C150A9F6CDCFDB
:10186000C8EED0E07EEFA1EFB0E010E18881982FC4
:101870009570E1F382FD00C1642F413108F0612FC2
:10188000662309F4F6C0C901562FFC010196E491C4
:10189000EC935150D1F7862F815090E00196280F9C
:1018A000391F461B78834111E1CF6031F9F2E4C062
:1018B000453061F48EEF8093E800E8EEF0E080813F
:1018C00080FFFDCF20682093E300D6C04930A1F50A
:1018D00071115BC02093A7071092A8071092A6076A
:1018E0008EEF8093E80011E080E692E0C9EED0E050
:1018F000ABEEB0E06CEE70E04DEE50E018839C0172
:101900002F5F3F4FFC0104910C93002359F0F90124
:101910002491FB012083FC01329603962491FA0165
:10192000208301C0C9011F5F153041F7EAEEF0E0E6
:101930008EE180831082A0C0483081F4703809F0B5
:101940003FC0E8EEF0E0808180FFFDCF8091A707E7
:101950008093F1008EEF8093E8008EC04132A9F4AD
:10196000713AF1F5E8EEF0E0808180FFFDCFE3E031
:10197000F1E0A1EFB0E081918C9341E0EA30F4070F
:10198000D1F78EEF8093E80077C04032C9F471320E
:1019900009F06BC0E8EEF0E0808182FFFDCFE3E06C
:1019A000F1E0A1EFB0E08C91819351E0EA30F507CE
:1019B000D1F7E8EEF0E08BEF80838EEF80835CC0A0
:1019C000423271F4713209F050C02093A807E8EE5A
:1019D000F0E0808180FFFDCF8EEF8093E8004CC067
:1019E00041111AC0E8EEF0E0208120FFFDCF7238EF
:1019F00051F4E9EEF0E080838091EB0085FB8827CD
:101A000080F9108201C080E0E1EFF0E08083108275
:101A10008EEF8093E80030C0413011F0433029F55B
:101A2000723019F5232B09F58F779927382F31500C
:101A30003430D8F43EEF3093E8008093E90043302F
:101A400021F481E28093EB0017C099E19093EB00C1
:101A500021E030E0D90102C0AA0FBB1F8A95E2F74E
:101A6000EAEEF0E0A083108207C081E28093EB00F1
:101A700003C078834111FACEFF91EF91DF91CF91AE
:101A8000BF91AF919F918F917F916F915F914F9196
:101A90003F912F911F910F910F900FBE0F901F90AC
:101AA0001895CF93DF93EC018991882329F00E9448
:101AB0002F0B89918111FBCFDF91CF910895CF93A7
:101AC000DF93CDB7DEB764970FB6F894DEBF0FBED5
:101AD000CDBF2AE030E0AE014F5F5F4F0E94F10DB5
:101AE000CE0101960E94510D64960FB6F894DEBFA8
:101AF0000FBECDBFDF91CF910895A1E21A2EAA1B90
:101B0000BB1BFD010DC0AA1FBB1FEE1FFF1FA217AD
:101B1000B307E407F50720F0A21BB30BE40BF50BAA
:101B2000661F771F881F991F1A9469F76095709533
:101B3000809590959B01AC01BD01CF010895EE0FFA
:101B4000FF1F0590F491E02D09940E94B00DA59F10
:101B5000900DB49F900DA49F800D911D11240895A8
:101B6000A29FB001B39FC001A39F01D0B29F700D8F
:101B7000811D1124911D08951F93FC019927882729
:101B8000BC01E89411911032E9F3193010F01E30C5
:101B9000C8F31B3251F01D3249F4689406C00E940C
:101BA000250E610F711D811D911D119110531A3069
:101BB000B0F33EF490958095709561957F4F8F4F6F
:101BC0009F4F1F910895FB01DC014150504030F0C0
:101BD0008D910190801919F40020B9F7881B990B99
:101BE0000895FA01CF93FF93EF93223044F1253209
:101BF00034F5C22FE894CA3049F497FB3EF490952F
:101C00008095709561957F4F8F4F9F4F2C2F332775
:101C100044275527FF93EF930E947D0DEF91FF918D
:101C2000605D6A330CF0695D6193B901CA0160506F
:101C300070408040904051F716F4CDE2C19310827D
:101C40008F919F91CF910C943A0E592F482F372F97
:101C5000262F660F771F881F991F660F771F881F13
:101C6000991F620F731F841F951F660F771F881FB0
:101C7000991F0895DC01FC01672F71917723E1F72B
:101C8000329704C07C916D9370836291AE17BF0749
:081C9000C8F30895F894FFCF9A
:101C980001010100E100000000080D0A4261636BC8
:101CA80020746F20636D64206D6F64650D0A2400D5
:101CB8000D0A656E61626C6520737465707065727B
:101CC8000D0A00285E203230302900287620323074
:101CD800302900283C203230302900283E2032307C
:101CE800302900200D0A20646961676F6E616C20DD
:101CF8006F6B61790D0A002D20646961676F6E61F1
:101D08006C206F6B61790D0A000D0A746F6F6C207F
:101D180073746F70200D0A000D0A746F6F6C206960
:101D28006E697420646F6E65200D0A000D0A746F69
:101D38006F6C2073706565642073657420746F3AE6
:101D4800200020203F202068696C6674000D0A3D41
:101D58003D3D3D3D3D3D3D3D3D3D3D3D3D3D3D3DAB
:101D68003D3D3D3D3D3D3D3D3D3D3D3D3D3D3D3D9B
:101D78003D3D3D3D3D3D3D3D3D3D3D3D3D3D3D3D8B
:101D88003D0D0A0D0A2045696E7A656C737465709D
:101D98003A200D0A773A09766F72205820616368F5
:101DA8007365200D0A733A097A75720A39636B20D4
:101DB80058206163687365200D0A613A09766F726D
:101DC8002059206163687365200D0A643A097A75A1
:101DD80072FC636B2059206163687365200D0A0DDE
:101DE8000A203120756D64726568756E672073749A
:101DF80065703A200D0A723A09766F722058206190
:101E080063687365200D0A663A097A7572FC636B1C
:101E18002058206163687365200D0A713A09766F4E
:101E2800722059206163687365200D0A653A097A42
:101E38007572FC636B2059206163687365200D0A15
:101E48000D0A6F3A09766F7220582B592061636822
:101E58007365200D0A703A097A7572FC636B205815
:101E68002B59206163687365200D0A0D0A20546F91
:101E78006F6C3A200D0A743A2053657420746F6FA2
:101E88006C2073706565642028706F7469207765AD
:101E98007274290D0A693A20696E697420746F6F2B
:101EA8006C2028353132290D0A7A3A2073746F7004
:101EB80020746F6F6C090D0A0D0A7920616B7469C3
:101EC80076696572742064696520747265696265F3
:101ED80072206E616368206E6F746175730D0A45B8
:101EE800534320746F206C656176652067636F6467
:101EF80065206D6F64653F3A202068696C666520CF
:101F08000D0A00756E62656B616E6E746572206293
:101F1800656665686C20202D20203F2066FC7220B5
:101F280068696C666500636D64000D0A436F6D6DCA
:101F3800616E64206C696E65206D6F6465202D206C
:101F48004F4B200D0A0068656C70000D0A20412077
:101F580077696C642068656C70206D6575652061B3
:101F680070706572617273202D20206166746572CD
:101F780020692077726974652074686973207468B1
:101F8800696E67202E2E2E0D0A757074696D652096
:101F9800092D207A6569676520757074696D650D0E
:101FA8000A6C6564206F6E20092D206C65642061C1
:101FB8006E0D0A6C6564206F666620092D206C65BD
:101FC80064206175730D0A6D6F766578202320098A
:101FD8002D202062657765677420696E20782072ED
:101FE80069636874756E67206D697220282D2923CE
:101FF80020756D64726568756E67656E200D0A6D73
:102008006F766579202320092D2020626577656722
:102018007420696E2079207269636874756E672010
:102028006D697220282D292320756D647265687585
:102038006E67656E200D0A6D6F76657A202320091C
:102048002D202062657765677420696E207A20727A
:1020580069636874756E67206D697220282D29235D
:1020680020756D64726568756E67656E200D0A74FB
:10207800656D7020092D206765742074656D706525
:102088007261747572652028646F6573206E6F7451
:1020980020776F726B20676F6F64290D0A67636F13
:1020A800646520092D20656E746572207370656300
:1020B80069616C206720636F6465206D656E750DBE
:1020C8000A6578697420092D206578697420636F22
:1020D8006D616E64206C696E65206D6F64650D0AB4
:1020E80068656C7020092D2073686F772068656CAF
:1020F80070206D656E750D0A2400757074696D65C4
:10210800000D0A757074696D653A006C6564206F1E
:102118006E000D0A206C65642065696E67657363DF
:1021280068616C746574200D0A24006C6564206F06
:102138006666000D0A206C656420617573676573B7
:102148006368616C746574200D0A24006D6F766590
:102158007820006D6F76657920006D6F76657A203E
:102168000074656D70000D0A2041565220436F724D
:10217800652054656D703A20200020B043006763E5
:102188006F646500596F752061726520696E20471C
:10219800636F64652D4D6F6465206E6F7720202D09
:1021A800202045534320746F206C65617665200DAF
:1021B8000A3E0065786974000D0A20436F6D6D61F1
:1021C8006E64206C696E6520636C6F736564006271
:1021D8006F6F74000D0A203D3D3D3D3D3D3D3D3D49
:1021E8003D3D3D3D3D3D3D3D3D3D3D3D3D3D3D3D17
:1021F8003D3D3D3D3D3D3D3D3D3D3D3D3D3D3D3D07
:102208003D3D3D3D3D3D3D3D3D3D3D3D3D3D3D3DF6
:102218000D0A7C7C090920426F6F746C6F616465DC
:1022280072206D6F6465090909207C7C0D0A203DC8
:102238003D3D3D3D3D3D3D3D3D3D3D3D3D3D3D3DC6
:102248003D3D3D3D3D3D3D3D3D3D3D3D3D3D3D3DB6
:102258003D3D3D3D3D3D3D3D3D3D3D3D3D3D3D3DA6
:102268003D3D3D3D3D3D3D3D20000D0A20756E6BD9
:102278006E6F776E20636F6D6D616E6420273F27E8
:1022880020666F722068656C700D0A24000D0A20A4
:10229800747970652027636D642720746F20656EDC
:1022A80074657220636F6D6D616E64206C696E6514
:1022B800206D6F64650D0A000D0A627574746F6E87
:1022C8002031000D0A627574746F6E2032000D0A99
:1022D800627574746F6E2033000D0A627574746FC2
:1022E8006E2034000D0A627574746F6E2035000D0F
:1022F8000A627574746F6E2036000D0A6275747404
:102308006F6E2037000D0A756E61626C6520746F00
:0E231800207265616420627574746F6E00003F
:04000003000011AC3C
:00000001FF
