:100000000C9484010C94DE060C94A1010C94A101C3
:100010000C94A1010C94A1010C94A1010C94A101D8
:100020000C94A1010C94A1010C94770B0C94B50BCA
:100030000C94A1010C94A1010C94A1010C94A101B8
:100040000C94A1010C94B2050C94A1010C94A10193
:100050000C94A1010C94A1010C94A1010C94A10198
:100060000C94A1010C94A1010C94A1010C94A10188
:100070000C94A1010C94A1010C94A1010C94A10178
:100080000C94A1010C94A1010C94A1010C94A10168
:100090000C94A1010C94A1010C94A1010C94A10158
:1000A0000C94A1010C94A1010C94A101F602BF03D0
:1000B000BF03BF03BF03A903BF03BF03BF03BF0346
:1000C000BF03BF03BF03BF03BF03BF037B03BF0364
:1000D0008203BF03BF03BF03BF03BF03BF03BF034D
:1000E000BF03BF03BF03BF03BF03BF03BF03BF0300
:1000F000BF03BF03B603BF03BF03BF03BF03BF03F9
:10010000BF03BF03BF03BF03BF03BF03BF03BF03DF
:10011000BF03BF03BF03BF03BF03BF03BF03BF03CF
:10012000BF03BF03BF03BF03BF03BF03BF03BF03BF
:10013000BF03BF03BF03BF033A03BF03BF033003C3
:100140004E032503BF03BF039203BF03BF03BF03D7
:10015000BF03BF0359036A0343031A03110399033F
:10016000BF03BF030703BF0300038903BF03BF032C
:10017000BF03BF03BF03BF03BF03BF03BF03BF036F
:10018000BF03BF03BF03BF03BF03BF03BF03BF035F
:10019000BF03BF03BF03BF03BF03BF03BF03BF034F
:1001A000BF03BF03BF03BF03BF03BF03BF03BF033F
:1001B000BF03BF03BF03BF03BF03BF03BF03BF032F
:1001C000BF03BF03BF03BF03BF03BF03BF03BF031F
:1001D000BF03BF03BF03BF03BF03BF03BF03BF030F
:1001E000BF03BF03BF03BF03BF03BF03BF03BF03FF
:1001F000BF03BF03BF03BF03BF03BF03BF03BF03EF
:10020000BF03BF03BF03BF03BF03BF03BF03BF03DE
:10021000BF03BF03BF03BF03BF03BF03BF03BF03CE
:10022000BF03BF03BF03BF03BF03BF03BF03BF03BE
:10023000BF03BF03B603000100006A021200020000
:10024000007C024300030000BF020401030904C351
:10025000021402030904D9021E03030904F9020C63
:100260000001C11201803601813612010002020034
:100270000010ADDEFEAF00010102030109024300E0
:10028000020100C03209040000010202010005243D
:1002900000100105240101010424020605240600C2
:1002A000010705820310004009040100020A000052
:1002B0000007050302400000070584024000000417
:1002C000030904140363006E0063004000730068B8
:1002D00000610063006B0000001E035500530042E4
:1002E000002000530065007200690061006C00206E
:1002F0000043004E00430000000C03300030003883
:10030000003100350000000011241FBECFEFDAE0FD
:10031000DEBFCDBF16E0A0E0B1E0E0E7FCE102C047
:1003200005900D92A630B107D9F726E0A6E0B6E019
:1003300001C01D92A232B207E1F70E94FE050C94A3
:10034000360E0C940000CF93DF93EAE7F0E0908143
:100350009F77908390819F7B9083883009F475C04C
:1003600078F48430D1F130F48823F1F0813009F051
:10037000F9C025C0863009F44CC008F058C03BC015
:100380008B3009F489C038F4893009F469C08A30A7
:1003900009F0E8C073C08D3009F49AC008F48AC02F
:1003A000843109F0DFC0A2C0ECE7F0E08081807EFC
:1003B0008083EBE7F0E080818F7D8083A4C0ECE751
:1003C000F0E08081817E8083808181608083EBE7A3
:1003D000F0E080818F7D808396C0ECE7F0E0808143
:1003E000847E8083808184608083EBE7F0E080817D
:1003F0008F7D808388C0ECE7F0E08081856080831A
:100400008081857E8083EBE7F0E080818F7D808333
:100410007AC0ECE7F0E08081866080838081867E10
:100420008083EBE7F0E080818F7D80836CC0ECE718
:10043000F0E08081876080838081877E8083EBE726
:10044000F0E080818F7D80835EC0ECE7F0E080810A
:10045000807E8083EBE7F0E080818062808353C000
:10046000ECE7F0E08081817E808380818160808301
:10047000EBE7F0E080818062808345C0ECE7F0E04C
:100480008081827E8083808182608083EBE7F0E0E0
:1004900080818062808337C0ECE7F0E08081837EDA
:1004A0008083808183608083EBE7F0E080818062DD
:1004B000808329C0ECE7F0E08081847E80838081A6
:1004C00084608083EBE7F0E08081806280831BC0E2
:1004D000ECE7F0E08081857E808380818560808389
:1004E000EBE7F0E08081806280830DC0ECE7F0E014
:1004F0008081877E8083808187608083EBE7F0E066
:10050000808180628083EAE7F0E080818068808378
:10051000808180648083808186FDFDCF1092790088
:100520001092780044E080E090E0DC01EAE7F0E03F
:10053000C8E7D0E0208120642083208126FDFDCF04
:1005400028813981820F931FA11DB11D415091F760
:10055000B695A79597958795B695A79597958795FD
:100560009C0102C020E030E0822F932FDF91CF91D9
:100570000895ECE7F0E080818F7B808380818F7726
:10058000808380B38C7F80BB80818F7D80838081DE
:10059000877E8083808187608083ABE7B0E08C9129
:1005A00080628C93EAE7F0E08081876080838081BD
:1005B0008F7D80838C9180688C938081806880831C
:1005C000808180648083808186FDFDCF0895CF93F4
:1005D000DF93FC01808190E0FC017B97E53CF10515
:1005E00008F0CDC0EA5AFF4F0C948B0D109206060E
:1005F00081E0809307068AE091E00E943D0DC3C030
:100600007698469A80E291E00E943D0DBCC061E080
:1006100070E080E090E00E9486078EE50E941B0B50
:10062000B2C06FEF7FEFCB010E94860786E70E9482
:100630001B0BA9C068EC70E080E090E00E94860788
:1006400083E391E00E943D0D9EC068E37FEF8FEF52
:100650009FEF0E9486078BE391E00E943D0D93C0BF
:1006600061E070E080E090E00E9407088CE30E9467
:100670001B0B89C06FEF7FEFCB010E9407088EE351
:100680000E941B0B80C068E37FEF8FEF9FEF0E94FB
:10069000070883E491E00E943D0D75C068EC70E0AE
:1006A00080E090E00E9407088BE491E00E943D0DFD
:1006B0006AC068EC70E080E090E00E94860768EC19
:1006C00070E080E090E00E94070883E591E00E94DE
:1006D0003D0D59C068E37FEF8FEF9FEF0E948607C3
:1006E00068E37FEF8FEF9FEF0E94070887E691E0B6
:1006F0000E943D0D48C064E170E080E090E00E94FF
:10070000880841C06CEE7FEF8FEF9FEF0E94880852
:100710003AC080E090E00E94870A89E791E00E9459
:100720003D0D31C00E947A0A88E891E00E943D0D9B
:100730002AC080E00E94A301EC010E94870A8CE994
:1007400091E00E943D0DBE0180E090E00E944B0DC3
:100750001AC060EE71EB8FEF9FEF0E94860760EE8C
:1007600071EB8FEF9FEF0E9407080DC082EB91E0C5
:100770000E943D0D8DEB91E00E943D0D04C083E78A
:1007800093E00E943D0DDF91CF910895CF93DF93C9
:10079000EC0180910606882321F0CE010E94E70239
:1007A00030C143E050E066E973E0CE010E94CF0D16
:1007B000282F392F232B39F481E0809307068AE90B
:1007C00093E00E943D0D80910706882309F412C131
:1007D00088818F3359F044E050E066EB73E0CE013E
:1007E0000E94CF0D282F392F232B29F48BEB93E078
:1007F0000E943D0D06C146E050E062EE73E0CE017E
:100800000E94CF0D282F392F232B69F489EE93E016
:100810000E943D0D0E94E9050E944B0D83E694E085
:100820000E943D0DEEC046E050E063EF73E0CE0164
:100830000E94CF0D282F392F232B31F4769A8AEF7F
:1008400093E00E943D0DDDC047E050E063E174E0BD
:10085000CE010E94CF0D282F392F232B31F476980B
:100860008BE194E00E943D0DCCC046E050E064E393
:1008700074E0CE010E94CF0D282F392F232B89F44D
:10088000CE0106960E94A80D9B01AC01A8ECB0E039
:100890000E94910D0E94860782E694E00E943D0D21
:1008A000B0C046E050E06BE374E0CE010E94CF0D93
:1008B000282F392F232B89F4CE0106960E94A80DEC
:1008C0009B01AC01A8ECB0E00E94910D0E940708CA
:1008D00082E694E00E943D0D94C046E050E062E460
:1008E00074E0CE010E94CF0D282F392F232B89F4DD
:1008F000CE0106960E94A80D9B01AC01A8ECB0E0C9
:100900000E94910D0E94880882E694E00E943D0DAD
:1009100078C044E050E069E474E0CE010E94CF0D5D
:10092000282F392F232BC1F484E10E94A301D82F53
:1009300080E0C82F8EE494E00E943D0DBE0161511D
:100940007140882777FD8095982F0E944B0D8FE589
:1009500094E00E943D0D55C045E050E067E674E02C
:10096000CE010E94CF0D282F392F232B51F481E087
:1009700080930606109207068DE694E00E943D0DD6
:1009800040C044E050E06CE974E0CE010E94CF0D1D
:10099000282F392F232B39F41092070681EA94E08F
:1009A0000E943D0D2EC044E050E068EB74E0CE01A3
:1009B0000E94CF0D282F392F232B39F48DEB94E093
:1009C0000E943D0D0E946F061CC043E050E066E9A6
:1009D00073E0CE010E94CF0D282F392F232B29F44D
:1009E00083E694E00E943D0D0CC083E595E00E94F3
:1009F0003D0D07C0CE010E943D0D86E795E00E94A7
:100A00003D0DDF91CF910895109280008BE080938F
:100A100081001092820010928500109284008AEF6B
:100A200090E0909389008093880082E080936F002B
:100A300008958091160690911706A0911806B0911E
:100A40001906181619061A061B0674F40197A1094F
:100A5000B1098093160690931706A0931806B093D9
:100A600019060E9420070FC0BB236CF40196A11D3C
:100A7000B11D8093160690931706A0931806B093A5
:100A800019060E9453078091120690911306A091B7
:100A90001406B0911506181619061A061B0674F4EA
:100AA0000197A109B1098093120690931306A093B0
:100AB0001406B09315060E94A1070FC0BB236CF467
:100AC0000196A11DB11D8093120690931306A09369
:100AD0001406B09315060E94D40780910E069091DB
:100AE0000F06A0911006B0911106181619061A06E5
:100AF0001B0674F40197A109B10980930E06909327
:100B00000F06A0931006B09311060E9422080895C4
:100B1000BB236CF40196A11DB11D80930E0690932A
:100B20000F06A0931006B09311060E945508089571
:100B3000809108069091090601969093090680938A
:100B4000080680E00E94A301209108063091090662
:100B50002817390730F010920906109208060E94F3
:100B6000190508951F920F920FB60F9211242F931B
:100B70003F934F935F936F937F938F939F93AF9325
:100B8000BF93EF93FF9380910A0690910B06A0917B
:100B90000C06B0910D060196A11DB11D80930A06A9
:100BA00090930B06A0930C06B0930D060E94980537
:100BB000FF91EF91BF91AF919F918F917F916F9135
:100BC0005F914F913F912F910F900FBE0F901F900B
:100BD000189560910A0670910B0680910C06909111
:100BE0000D060895009749F00197EFE9FFE031976E
:100BF000F1F700C000000097B9F70895CF93DF9395
:100C0000CDB7DEB7CA5FD1090FB6F894DEBF0FBE0D
:100C1000CDBF80E890E00FB6F89480936100909388
:100C200061000FBE85BF6E9A8FEF84B98AB1806F65
:100C30008AB93F9A3E9A0E94B9020E94A60A0E946F
:100C400004058AEF90E00E94F205469A5098589A5F
:100C5000E9E6F0E080818C7F80838AE090E00E946A
:100C6000F205E89A8AE090E00E94F205FE013196D2
:100C70008AEFDF011D928A95E9F700E010E07F011D
:100C80000F2EFAEFBF2EF02DC12CD12C01C08C01FC
:100C90000E94EB0A8823E1F30E94BF0AF701E00FEC
:100CA000F11F80830E941B0B0E94050BC801019657
:100CB0008431910530F4F701E00FF11F20812D30D0
:100CC00031F7F701E00FF11F1082C7010E94C60340
:100CD000F7018B2D11928A95E9F78601D9CF85B757
:100CE000816085BF85B7826085BF10926E001092CB
:100CF0006F001092720084EF91E00E94F2050C9454
:100D0000001C089581E00E94A3019C012354310935
:100D10002138310530F481EA95E00E943D0D81E0F3
:100D200008959C01295C31092D37310530F48CEA96
:100D300095E00E943D0D82E008959C0127543140CA
:100D40002C37310530F487EB95E00E943D0D83E0B0
:100D500008959C01235C31402936310530F482EC42
:100D600095E00E943D0D84E008959C012C52324094
:100D70002D37310530F48DEC95E00E943D0D85E076
:100D800008959C01295A32402238310530F488ED0B
:100D900095E00E943D0D86E008958B5293408B377D
:100DA000910530F483EE95E00E943D0D87E00895B3
:100DB0008EEE95E00E943D0D80E008951F920F9207
:100DC0000FB60F9211242F933F934F935F936F931E
:100DD0007F938F939F93AF93BF93EF93FF93469827
:100DE00080E090E00E94870A10920E0610920F0693
:100DF000109210061092110610921206109213060D
:100E000010921406109215061092160610921706EC
:100E10001092180610921906769A0E948206FF9187
:100E2000EF91BF91AF919F918F917F916F915F9162
:100E30004F913F912F910F900FBE0F901F901895DB
:100E400080910201823099F018F4813059F505C083
:100E50008330B9F0843031F51EC02898299A2A9A37
:100E60002B98809102018F5F80930201089528984A
:100E700029982A9A2B9A809102018F5F8093020110
:100E80000895289A29982A982B9A809102018F5FB9
:100E9000809302010895289A299A2A982B9881E034
:100EA00080930201089580910201823089F018F444
:100EB000813059F505C08330A9F0843031F51CC06C
:100EC000289A29982A982B9A84E080930201089501
:100ED000289A299A2A982B98809102018150809310
:100EE000020108952898299A2A9A2B988091020144
:100EF0008150809302010895289829982A9A2B9A64
:100F00008091020181508093020108950F931F93F5
:100F100000911606109117062091180630911906B7
:100F2000DC01CB01800F911FA21FB31F8093160617
:100F300090931706A0931806B09319061F910F916E
:100F4000089580910101823099F018F4813059F5AB
:100F500005C08330B9F0843031F51EC02C982D9A2D
:100F60002E9A2F98809101018F5F8093010108953F
:100F70002C982D982E9A2F9A809101018F5F809343
:100F8000010108952C9A2D982E982F9A8091010195
:100F90008F5F8093010108952C9A2D9A2E982F9897
:100FA00081E080930101089580910101823089F0F0
:100FB00018F4813059F505C08330A9F0843031F53B
:100FC0001CC02C9A2D982E982F9A84E080930101B2
:100FD00008952C9A2D9A2E982F9880910101815076
:100FE0008093010108952C982D9A2E9A2F98809124
:100FF000010181508093010108952C982D982E9A1B
:101000002F9A8091010181508093010108950F93DF
:101010001F9300911206109113062091140630912F
:101020001506DC01CB01800F911FA21FB31F809317
:10103000120690931306A0931406B09315061F9101
:101040000F91089580910001823099F018F4813059
:1010500059F505C08330B9F0843031F51EC05C9875
:101060005D9A5E9A5F98809100018F5F8093000186
:1010700008955C985D985E9A5F9A809100018F5FF9
:101080008093000108955C9A5D985E985F9A8091C4
:1010900000018F5F8093000108955C9A5D9A5E98CD
:1010A0005F9881E080930001089580910101823072
:1010B00089F018F4813059F505C08330A9F08430E7
:1010C00031F51CC05C9A5D985E985F9A84E08093CD
:1010D000000108955C9A5D9A5E985F988091000186
:1010E00081508093000108955C985D9A5E9A5F98A4
:1010F0008091000181508093000108955C985D9873
:101100005E9A5F9A8091000181508093000108955A
:101110000F931F9300910E0610910F062091100659
:1011200030911106DC01CB01800F911FA21FB31F6C
:1011300080930E0690930F06A0931006B0931106AD
:101140001F910F91089520911A0630911B0640912E
:101150001C0650911D06DC010E94910DDC01CB01A3
:10116000072E79E0B695A795979587957A95D1F74B
:10117000702D492F5A2F6B2F77274093BF008093F4
:10118000CF000895E0ECF0E08081806880830895CE
:10119000E0ECF0E080818F77808308959B01AC01C3
:1011A00060E07CE68CED92E00E94690D2F3F63E0E9
:1011B00036074105510550F420931A0630931B065B
:1011C00040931C0650931D0681E071C12E3F67E0DD
:1011D00036074105510580F4DA01C901B695A79596
:1011E0009795879580931A0690931B06A0931C06EB
:1011F000B0931D0682E05BC12C3F6FE036074105CE
:101200005105A0F4DA01C901B695A7959795879580
:10121000B695A7959795879580931A0690931B0688
:10122000A0931C06B0931D0683E041C1283F6FE1E7
:10123000360741055105A0F4DA01C901689412F896
:10124000B695A795979587951694D1F780931A062A
:1012500090931B06A0931C06B0931D0684E027C143
:10126000203F6FE3360741055105A0F4DA01C901BB
:10127000689413F8B695A795979587951694D1F726
:1012800080931A0690931B06A0931C06B0931D062C
:1012900085E00DC1203E6FE7360741055105A0F4FA
:1012A000DA01C901689414F8B695A79597958795C2
:1012B0001694D1F780931A0690931B06A0931C06F0
:1012C000B0931D0686E0F3C0203C6FEF3607410562
:1012D0005105A0F4DA01C901689415F8B695A795EF
:1012E000979587951694D1F780931A0690931B06CD
:1012F000A0931C06B0931D0687E0D9C020386FEF7D
:10130000360761E046075105A0F4DA01C901689487
:1013100016F8B695A795979587951694D1F780936B
:101320001A0690931B06A0931C06B0931D0688E036
:10133000BEC021156FEF360763E04607510570F414
:10134000BB27A52F942F832F80931A0690931B06FB
:10135000A0931C06B0931D0689E0A9C021156EEF6D
:10136000360767E046075105A8F4DA01C901072EE0
:1013700079E0B695A795979587957A95D1F7702DD1
:1013800080931A0690931B06A0931C06B0931D062B
:101390008AE08DC021156CEF36076FE046075105D6
:1013A000A8F4DA01C901072E7AE0B695A7959795BA
:1013B00087957A95D1F7702D80931A0690931B0626
:1013C000A0931C06B0931D068BE071C0211568EF39
:1013D00036076FE146075105A8F4DA01C901072E67
:1013E0007BE0B695A795979587957A95D1F7702D5F
:1013F00080931A0690931B06A0931C06B0931D06BB
:101400008CE055C0211560EF36076FE346075105A4
:10141000A8F4DA01C901072E7CE0B695A795979547
:1014200087957A95D1F7702D80931A0690931B06B5
:10143000A0931C06B0931D068DE039C0211560EE07
:1014400036076FE746075105A8F4DA01C901072EF0
:101450007DE0B695A795979587957A95D1F7702DEC
:1014600080931A0690931B06A0931C06B0931D064A
:101470008EE01DC0211560EC36076FEF4607510561
:10148000A8F4DA01C901072E7EE0B695A7959795D5
:1014900087957A95D1F7702D80931A0690931B0645
:1014A000A0931C06B0931D068FE001C080E08093DE
:1014B000C10080911A0690911B06A0911C06B09164
:1014C0001D06892F9A2FAB2FBB278093BF008091D9
:1014D0001A068093D100089522E02093C00020E4F2
:1014E0002093C40021E02093C3001092C2000E9408
:1014F000CE08089560E177E280E090E00E946C0AF7
:1015000080E092E00E94A3080E94C2080895CF9351
:10151000DF93EC01009739F480E090E00E94A3088B
:101520000E94C80810C0C13084E0D80730F40E947F
:10153000C208CE010E94A30806C00E94C20880E033
:1015400094E00E94A308DF91CF91089581E08093F9
:10155000D70080EA8093D80082E189BD09B400FEFB
:10156000FDCF80E98093D8001092E00010921F0612
:10157000109220068CE08093E200789408952FB7B3
:10158000F89480911F06811103C02FBF8FEF08953B
:1015900083E08093E9008091E80085FD11C082FD21
:1015A00004C00BC082FD04C008C0E8EEF0E09BE67A
:1015B0009083808185FFF6CF03C02FBF8FEF089502
:1015C0008091F1009091E80095FD03C09BE6909317
:1015D000E8002FBF08959FB7F89480911F068823D5
:1015E00089F083E08093E9008091F20081110BC0C3
:1015F0002091E80022FF07C025FD05C02BE62093BF
:10160000E80001C080E09FBF089580911F068823F5
:1016100089F02FB7F89483E08093E9008091E80087
:1016200085FF07C0E8EEF0E09BE69083808185FDB2
:10163000FCCF2FBF0895CF93DF9390911F0699237E
:1016400009F44DC09FB7F89424E02093E90020915D
:101650002106222349F02091E80025FD03C09FBF09
:101660008FEF42C0109221063091E400375E209146
:10167000E80025FD25C09FBF9091E400931749F035
:1016800090911F0691110FC02CC09FBF988193139A
:1016900005C081E0809321068FEF26C090911F0640
:1016A000911108C020C0A9EEB0E044E0E8EEF0E0FF
:1016B000C4EED0E09FB7F8944C93208125FFE5CF8E
:1016C0008093F1008091E80085FD03C08AE3809358
:1016D000E80085E080931E069FBF80E005C08FEF85
:1016E00003C08FEF01C08FEFDF91CF9108951F925C
:1016F0000F920FB60F9211248F939F93EF93FF9346
:10170000E1EEF0E08081108283FF11C01092E900C9
:1017100091E09093EB001092EC0092E19093ED0039
:1017200098E09093F00010921F061092200682FF1E
:1017300013C080911F06882379F080911E068823AC
:1017400059F0815080931E06811106C084E0809379
:10175000E9008AE38093E800FF91EF919F918F91D8
:101760000F900FBE0F901F9018951F920F920FB6FB
:101770000F9211240F931F932F933F934F935F93D7
:101780006F937F938F939F93AF93BF93CF93DF9389
:10179000EF93FF931092E9008091E80083FF51C11D
:1017A000E1EFF0E07081408120813081932F80E073
:1017B000DC01A22B9D0150816081962F80E0852B5A
:1017C000A081B08152EF5093E800463009F05CC030
:1017D00004C081E28093EB003BC1C6E046E352E0E7
:1017E000FA01659174912617370719F0495F5F4F29
:1017F00020C0FA013296659174918617970719F007
:10180000495F5F4F16C0FA01349685919491282F55
:10181000392FFA01369644919B2F80E08A2B8F3F17
:10182000910519F010F08FEF90E0841728F4482FFD
:1018300003C0C150A9F6CDCFC8EED0E07EEFA1EF36
:10184000B0E010E18881982F9570E1F382FD00C12E
:10185000642F413108F0612F662309F4F6C0C901F5
:10186000562FFC010196E491EC935150D1F7862F4D
:10187000815090E00196280F391F461B7883411153
:10188000E1CF6031F9F2E4C0453061F48EEF80932E
:10189000E800E8EEF0E0808180FFFDCF2068209333
:1018A000E300D6C04930A1F571115BC020931F063B
:1018B0001092200610921E068EEF8093E80011E031
:1018C00080E692E0C9EED0E0ABEEB0E06CEE70E006
:1018D0004DEE50E018839C012F5F3F4FFC010491B7
:1018E0000C93002359F0F9012491FB012083FC01A2
:1018F000329603962491FA01208301C0C9011F5F2B
:10190000153041F7EAEEF0E08EE180831082A0C04E
:10191000483081F4703809F03FC0E8EEF0E0808193
:1019200080FFFDCF80911F068093F1008EEF8093A2
:10193000E8008EC04132A9F4713AF1F5E8EEF0E02A
:10194000808180FFFDCFE3E0F1E0A1EFB0E0819185
:101950008C9341E0EA30F407D1F78EEF8093E800F2
:1019600077C04032C9F4713209F06BC0E8EEF0E0A4
:10197000808182FFFDCFE3E0F1E0A1EFB0E08C9148
:10198000819351E0EA30F507D1F7E8EEF0E08BEF14
:1019900080838EEF80835CC0423271F4713209F033
:1019A00050C020932006E8EEF0E0808180FFFDCF5C
:1019B0008EEF8093E8004CC041111AC0E8EEF0E0D1
:1019C000208120FFFDCF723851F4E9EEF0E08083F2
:1019D0008091EB0085FB882780F9108201C080E0B0
:1019E000E1EFF0E0808310828EEF8093E80030C05A
:1019F000413011F0433029F5723019F5232B09F5E8
:101A00008F779927382F31503430D8F43EEF309308
:101A1000E8008093E900433021F481E28093EB00F9
:101A200017C099E19093EB0021E030E0D90102C0AA
:101A3000AA0FBB1F8A95E2F7EAEEF0E0A0831082BE
:101A400007C081E28093EB0003C078834111FACE96
:101A5000FF91EF91DF91CF91BF91AF919F918F91C6
:101A60007F916F915F914F913F912F911F910F91B6
:101A70000F900FBE0F901F901895CF93DF93EC013E
:101A80008991882329F00E941B0B89918111FBCF3A
:101A9000DF91CF910895CF93DF93CDB7DEB76497F1
:101AA0000FB6F894DEBF0FBECDBF2AE030E0AE0126
:101AB0004F5F5F4F0E94DD0DCE0101960E943D0DEC
:101AC00064960FB6F894DEBF0FBECDBFDF91CF9105
:101AD0000895A1E21A2EAA1BBB1BFD010DC0AA1F6F
:101AE000BB1FEE1FFF1FA217B307E407F50720F087
:101AF000A21BB30BE40BF50B661F771F881F991F02
:101B00001A9469F760957095809590959B01AC014A
:101B1000BD01CF010895EE0FFF1F0590F491E02D58
:101B200009940E949C0DA59F900DB49F900DA49FB9
:101B3000800D911D11240895A29FB001B39FC00193
:101B4000A39F01D0B29F700D811D1124911D089596
:101B50001F93FC0199278827BC01E894119110324A
:101B6000E9F3193010F01E30C8F31B3251F01D326A
:101B700049F4689406C00E94110E610F711D811D09
:101B8000911D119110531A30B0F33EF49095809549
:101B9000709561957F4F8F4F9F4F1F910895FB0167
:101BA000DC014150504030F08D910190801919F4C2
:101BB0000020B9F7881B990B0895FA01CF93FF9382
:101BC000EF93223044F1253234F5C22FE894CA3025
:101BD00049F497FB3EF490958095709561957F4F01
:101BE0008F4F9F4F2C2F332744275527FF93EF9379
:101BF0000E94690DEF91FF91605D6A330CF0695DA1
:101C00006193B901CA01605070408040904051F723
:101C100016F4CDE2C19310828F919F91CF910C94D5
:101C2000260E592F482F372F262F660F771F881F14
:101C3000991F660F771F881F991F620F731F841FDC
:101C4000951F660F771F881F991F0895DC01FC01FF
:101C5000672F71917723E1F7329704C07C916D93E0
:101C600070836291AE17BF07C8F30895F894FFCF51
:101C700001010100E100000000080D0A4261636BF0
:101C800020746F20636D64206D6F64650D0A2400FD
:101C90000D0A656E61626C652073746570706572A3
:101CA0000D0A00285E20323030290028762032309C
:101CB000302900283C203230302900283E203230A4
:101CC000302900200D0A20646961676F6E616C2005
:101CD0006F6B61790D0A002D20646961676F6E6119
:101CE0006C206F6B61790D0A000D0A746F6F6C20A8
:101CF00073746F70200D0A000D0A746F6F6C206989
:101D00006E697420646F6E65200D0A000D0A746F91
:101D10006F6C2073706565642073657420746F3A0E
:101D2000200020203F202068696C6674000D0A3D69
:101D30003D3D3D3D3D3D3D3D3D3D3D3D3D3D3D3DD3
:101D40003D3D3D3D3D3D3D3D3D3D3D3D3D3D3D3DC3
:101D50003D3D3D3D3D3D3D3D3D3D3D3D3D3D3D3DB3
:101D60003D0D0A0D0A2045696E7A656C73746570C5
:101D70003A200D0A773A09766F722058206163681D
:101D80007365200D0A733A097A75720A39636B20FC
:101D900058206163687365200D0A613A09766F7295
:101DA0002059206163687365200D0A643A097A75C9
:101DB00072FC636B2059206163687365200D0A0D06
:101DC0000A203120756D64726568756E67207374C2
:101DD00065703A200D0A723A09766F7220582061B8
:101DE00063687365200D0A663A097A7572FC636B45
:101DF0002058206163687365200D0A713A09766F77
:101E0000722059206163687365200D0A653A097A6A
:101E10007572FC636B2059206163687365200D0A3D
:101E20000D0A6F3A09766F7220582B59206163684A
:101E30007365200D0A703A097A7572FC636B20583D
:101E40002B59206163687365200D0A0D0A20546FB9
:101E50006F6C3A200D0A743A2053657420746F6FCA
:101E60006C2073706565642028706F7469207765D5
:101E70007274290D0A693A20696E697420746F6F53
:101E80006C2028353132290D0A7A3A2073746F702C
:101E900020746F6F6C090D0A0D0A7920616B7469EB
:101EA000766965727420646965207472656962651B
:101EB00072206E616368206E6F746175730D0A45E0
:101EC000534320746F206C656176652067636F648F
:101ED00065206D6F64653F3A202068696C666520F7
:101EE0000D0A00756E62656B616E6E7465722062BC
:101EF000656665686C20202D20203F2066FC7220DE
:101F000068696C666500636D64000D0A436F6D6DF2
:101F1000616E64206C696E65206D6F6465202D2094
:101F20004F4B200D0A0068656C70000D0A2041209F
:101F300077696C642068656C70206D6575652061DB
:101F400070706572617273202D20206E6F740D0A9F
:101F50002400757074696D65000D0A757074696D83
:101F6000653A006C6564206F6E000D0A206C656434
:101F70002065696E6765736368616C746574200DB4
:101F80000A24006C6564206F6666000D0A206C658B
:101F900064206175736765736368616C7465742030
:101FA0000D0A24006D6F76657820006D6F76657977
:101FB00020006D6F76657A200074656D7000415663
:101FC0005220436F72652054656D703A20200020C6
:101FD000B043200D0A240067636F646500596F7574
:101FE0002061726520696E2047636F64652D4D6FB7
:101FF0006465206E6F7720202D2020455343207488
:102000006F206C65617665200D0A3E006578697405
:10201000000D0A20436F6D6D616E64206C696E6502
:1020200020636C6F73656400626F6F74000D0A202B
:102030003D3D3D3D3D3D3D3D3D3D3D3D3D3D3D3DD0
:102040003D3D3D3D3D3D3D3D3D3D3D3D3D3D3D3DC0
:102050003D3D3D3D3D3D3D3D3D3D3D3D3D3D3D3DB0
:102060003D3D3D3D3D3D3D3D3D0D0A7C7C0909200A
:10207000426F6F746C6F61646572206D6F64650987
:102080000909207C7C0D0A203D3D3D3D3D3D3D3D07
:102090003D3D3D3D3D3D3D3D3D3D3D3D3D3D3D3D70
:1020A0003D3D3D3D3D3D3D3D3D3D3D3D3D3D3D3D60
:1020B0003D3D3D3D3D3D3D3D3D3D3D3D3D3D3D3D50
:1020C0003D20000D0A20756E6B6E6F776E20636F7A
:1020D0006D6D616E6420273F2720666F72206865F2
:1020E0006C700D0A24000D0A207479706520276336
:1020F0006D642720746F20656E74657220636F6D48
:102100006D616E64206C696E65206D6F64650D0A8B
:10211000000D0A627574746F6E2031000D0A6275CD
:1021200074746F6E2032000D0A627574746F6E20C5
:1021300033000D0A627574746F6E2034000D0A62EC
:102140007574746F6E2035000D0A627574746F6E4D
:102150002036000D0A627574746F6E2037000D0A08
:10216000756E61626C6520746F20726561642062B7
:062170007574746F6E002F
:040000030000118464
:00000001FF
