:100000000C9484010C9411070C94A1010C94A1018F
:100010000C94A1010C94A1010C94A1010C94A101D8
:100020000C94A1010C94A1010C94AA0B0C94E80B64
:100030000C94A1010C94A1010C94A1010C94A101B8
:100040000C94A1010C94E5050C94A1010C94A10160
:100050000C94A1010C94A1010C94A1010C94A10198
:100060000C94A1010C94A1010C94A1010C94A10188
:100070000C94A1010C94A1010C94A1010C94A10178
:100080000C94A1010C94A1010C94A1010C94A10168
:100090000C94A1010C94A1010C94A1010C94A10158
:1000A0000C94A1010C94A1010C94A101F602BF03D0
:1000B000BF03BF03BF03A903BF03BF03BF03BF0346
:1000C000BF03BF03BF03BF03BF03BF037B03BF0364
:1000D0008203BF03BF03BF03BF03BF03BF03BF034D
:1000E000BF03BF03BF03BF03BF03BF03BF03BF0300
:1000F000BF03BF03B603BF03BF03BF03BF03BF03F9
:10010000BF03BF03BF03BF03BF03BF03BF03BF03DF
:10011000BF03BF03BF03BF03BF03BF03BF03BF03CF
:10012000BF03BF03BF03BF03BF03BF03BF03BF03BF
:10013000BF03BF03BF03BF033A03BF03BF033003C3
:100140004E032503BF03BF039203BF03BF03BF03D7
:10015000BF03BF0359036A0343031A03110399033F
:10016000BF03BF030703BF0300038903BF03BF032C
:10017000BF03BF03BF03BF03BF03BF03BF03BF036F
:10018000BF03BF03BF03BF03BF03BF03BF03BF035F
:10019000BF03BF03BF03BF03BF03BF03BF03BF034F
:1001A000BF03BF03BF03BF03BF03BF03BF03BF033F
:1001B000BF03BF03BF03BF03BF03BF03BF03BF032F
:1001C000BF03BF03BF03BF03BF03BF03BF03BF031F
:1001D000BF03BF03BF03BF03BF03BF03BF03BF030F
:1001E000BF03BF03BF03BF03BF03BF03BF03BF03FF
:1001F000BF03BF03BF03BF03BF03BF03BF03BF03EF
:10020000BF03BF03BF03BF03BF03BF03BF03BF03DE
:10021000BF03BF03BF03BF03BF03BF03BF03BF03CE
:10022000BF03BF03BF03BF03BF03BF03BF03BF03BE
:10023000BF03BF03B603000100006A021200020000
:10024000007C024300030000BF020401030904C351
:10025000021402030904D9021E03030904F9020C63
:100260000001C11201803601813612010002020034
:100270000010ADDEFEAF00010102030109024300E0
:10028000020100C03209040000010202010005243D
:1002900000100105240101010424020605240600C2
:1002A000010705820310004009040100020A000052
:1002B0000007050302400000070584024000000417
:1002C000030904140363006E0063004000730068B8
:1002D00000610063006B0000001E035500530042E4
:1002E000002000530065007200690061006C00206E
:1002F0000043004E00430000000C03300030003883
:10030000003100350000000011241FBECFEFDAE0FD
:10031000DEBFCDBF16E0A0E0B1E0E6EDFCE102C03B
:1003200005900D92A830B107D9F726E0A8E0B6E015
:1003300001C01D92A432B207E1F70E9431060C946D
:10034000690E0C940000CF93DF93EAE7F0E0908110
:100350009F77908390819F7B9083883009F475C04C
:1003600078F48430D1F130F48823F1F0813009F051
:10037000F9C025C0863009F44CC008F058C03BC015
:100380008B3009F489C038F4893009F469C08A30A7
:1003900009F0E8C073C08D3009F49AC008F48AC02F
:1003A000843109F0DFC0A2C0ECE7F0E08081807EFC
:1003B0008083EBE7F0E080818F7D8083A4C0ECE751
:1003C000F0E08081817E8083808181608083EBE7A3
:1003D000F0E080818F7D808396C0ECE7F0E0808143
:1003E000847E8083808184608083EBE7F0E080817D
:1003F0008F7D808388C0ECE7F0E08081856080831A
:100400008081857E8083EBE7F0E080818F7D808333
:100410007AC0ECE7F0E08081866080838081867E10
:100420008083EBE7F0E080818F7D80836CC0ECE718
:10043000F0E08081876080838081877E8083EBE726
:10044000F0E080818F7D80835EC0ECE7F0E080810A
:10045000807E8083EBE7F0E080818062808353C000
:10046000ECE7F0E08081817E808380818160808301
:10047000EBE7F0E080818062808345C0ECE7F0E04C
:100480008081827E8083808182608083EBE7F0E0E0
:1004900080818062808337C0ECE7F0E08081837EDA
:1004A0008083808183608083EBE7F0E080818062DD
:1004B000808329C0ECE7F0E08081847E80838081A6
:1004C00084608083EBE7F0E08081806280831BC0E2
:1004D000ECE7F0E08081857E808380818560808389
:1004E000EBE7F0E08081806280830DC0ECE7F0E014
:1004F0008081877E8083808187608083EBE7F0E066
:10050000808180628083EAE7F0E080818068808378
:10051000808180648083808186FDFDCF1092790088
:100520001092780044E080E090E0DC01EAE7F0E03F
:10053000C8E7D0E0208120642083208126FDFDCF04
:1005400028813981820F931FA11DB11D415091F760
:10055000B695A79597958795B695A79597958795FD
:100560009C0102C020E030E0822F932FDF91CF91D9
:100570000895ECE7F0E0808180648083808180686A
:10058000808380B38C7F80BB80818F7D80838081DE
:10059000877E8083808187608083ABE7B0E08C9129
:1005A00080628C93EAE7F0E08081876080838081BD
:1005B0008F7D80838C9180688C938081806880831C
:1005C000808180648083808186FDFDCF0895CF93F4
:1005D000DF93FC01808190E0FC017B97E53CF10515
:1005E00008F0CDC0EA5AFF4F0C94BE0D10920806D9
:1005F00081E0809309068AE091E00E94700DC3C0FB
:100600007698469A80E291E00E94700DBCC061E04D
:1006100070E080E090E00E94B9078EE50E944E0BEA
:10062000B2C06FEF7FEFCB010E94B90786E70E944F
:100630004E0BA9C068EC70E080E090E00E94B90722
:1006400083E391E00E94700D9EC068E37FEF8FEF1F
:100650009FEF0E94B9078BE391E00E94700D93C059
:1006600061E070E080E090E00E943A088CE30E9434
:100670004E0B89C06FEF7FEFCB010E943A088EE3EB
:100680000E944E0B80C068E37FEF8FEF9FEF0E94C8
:100690003A0883E491E00E94700D75C068EC70E048
:1006A00080E090E00E943A088BE491E00E94700D97
:1006B0006AC068EC70E080E090E00E94B90768ECE6
:1006C00070E080E090E00E943A0883E591E00E94AB
:1006D000700D59C068E37FEF8FEF9FEF0E94B9075D
:1006E00068E37FEF8FEF9FEF0E943A0887E691E083
:1006F0000E94700D48C064E170E080E090E00E94CC
:10070000BB0841C06CEE7FEF8FEF9FEF0E94BB08EC
:100710003AC080E090E00E94BA0A89E791E00E9426
:10072000700D31C00E94AD0A88E891E00E94700D02
:100730002AC080E00E94A301EC010E94BA0A8CE961
:1007400091E00E94700DBE0180E090E00E947E0D5D
:100750001AC060EE71EB8FEF9FEF0E94B90760EE59
:1007600071EB8FEF9FEF0E943A080DC082EB91E092
:100770000E94700D8DEB91E00E94700D04C083E724
:1007800093E00E94700DDF91CF910895CF92DF9298
:10079000EF92FF92CF93DF93EC01809108068823BC
:1007A00021F0CE010E94E7025BC143E050E066E920
:1007B00073E0CE010E94020E282F392F232B39F42B
:1007C00081E0809309068AE993E00E94700D809190
:1007D0000906882309F43DC188818F3359F044E02C
:1007E00050E066EB73E0CE010E94020E282F392FF5
:1007F000232B29F48BEB93E00E94700D31C146E06E
:1008000050E062EE73E0CE010E94020E282F392FD5
:10081000232B69F489EE93E00E94700D0E941C0660
:100820000E947E0D84E694E00E94700D19C146E09E
:1008300050E063EF73E0CE010E94020E282F392FA3
:10084000232B31F4769A8AEF93E00E94700D08C151
:1008500047E050E063E174E0CE010E94020E282FD1
:10086000392F232B31F476988BE194E00E94700DA0
:10087000F7C046E050E064E374E0CE010E94020E4F
:10088000282F392F232B89F4CE0106960E94DB0DE9
:100890009B01AC01A8ECB0E00E94C40D0E94B90716
:1008A00083E694E00E94700DDBC046E050E06BE30D
:1008B00074E0CE010E94020E282F392F232B89F4D9
:1008C000CE0106960E94DB0D9B01AC01A8ECB0E0C6
:1008D0000E94C40D0E943A0883E694E00E94700DC5
:1008E000BFC046E050E062E474E0CE010E94020E18
:1008F000282F392F232B89F4CE0106960E94DB0D79
:100900009B01AC01A8ECB0E00E94C40D0E94BB08A2
:1009100083E694E00E94700DA3C044E050E069E4D7
:1009200074E0CE010E94020E282F392F232B09F0EC
:1009300042C00F2EF4E1CF2ED12CE12CF12CF02D62
:100940008AEF90E00E94250684E10E94A301B7018E
:10095000A601440F551F661F771FC40ED51EE61E45
:10096000F71EC80ED91EE11CF11CD701C601FF20DD
:100970001CF40396A11DB11D6C017D01F594E79453
:10098000D794C794F594E794D794C794C701B60158
:100990000E947E0D8EE494E00E94700DC701B601A6
:1009A000665E7109810991090E947E0D80E694E0DE
:1009B0000E94700DC5CF45E050E068E674E0CE01BE
:1009C0000E94020E282F392F232B51F481E08093AF
:1009D0000806109209068EE694E00E94700D40C051
:1009E00044E050E06DE974E0CE010E94020E282F31
:1009F000392F232B39F41092090682EA94E00E94E1
:100A0000700D2EC044E050E069EB74E0CE010E940E
:100A1000020E282F392F232B39F48EEB94E00E94FD
:100A2000700D0E94A2061CC043E050E066E973E02E
:100A3000CE010E94020E282F392F232B29F484E6A1
:100A400094E00E94700D0CC084E595E00E94700D4A
:100A500007C0CE010E94700D87E795E00E94700DDF
:100A6000DF91CF91FF90EF90DF90CF90089510929B
:100A700080008BE0809381001092820010928500AC
:100A8000109284008AEF90E0909389008093880010
:100A900082E080936F000895809118069091190666
:100AA000A0911A06B0911B06181619061A061B0605
:100AB00074F40197A109B10980931806909319065F
:100AC000A0931A06B0931B060E9453070FC0BB23C6
:100AD0006CF40196A11DB11D809318069093190620
:100AE000A0931A06B0931B060E94860780911406F5
:100AF00090911506A0911606B091170618161906C2
:100B00001A061B0674F40197A109B1098093140613
:100B100090931506A0931606B09317060E94D4076B
:100B20000FC0BB236CF40196A11DB11D8093140668
:100B300090931506A0931606B09317060E94070817
:100B40008091100690911106A0911206B0911306A3
:100B5000181619061A061B0674F40197A109B109A3
:100B60008093100690931106A0931206B09313067B
:100B70000E9455080895BB236CF40196A11DB11D78
:100B80008093100690931106A0931206B09313065B
:100B90000E948808089580910A0690910B0601969C
:100BA00090930B0680930A0680E00E94A301209197
:100BB0000A0630910B062817390730F010920B0601
:100BC00010920A060E944C0508951F920F920FB6CC
:100BD0000F9211242F933F934F935F936F937F93C3
:100BE0008F939F93AF93BF93EF93FF9380910C06E6
:100BF00090910D06A0910E06B0910F060196A11DD1
:100C0000B11D80930C0690930D06A0930E06B09331
:100C10000F060E94CB05FF91EF91BF91AF919F917D
:100C20008F917F916F915F914F913F912F910F9095
:100C30000FBE0F901F90189560910C0670910D06D5
:100C400080910E0690910F060895009749F0019744
:100C5000EFE9FFE03197F1F700C000000097B9F726
:100C60000895CF93DF93CDB7DEB7CA5FD1090FB632
:100C7000F894DEBF0FBECDBF80E890E00FB6F894C9
:100C800080936100909361000FBE85BF6E9A8FEFD5
:100C900084B98AB1806F8AB93F9A3E9A0E94B9029C
:100CA0000E94D90A0E9437058AEF90E00E9425062B
:100CB000469A5098589AE9E6F0E080818C7F8083CC
:100CC0008AE090E00E942506E89A8AE090E00E947F
:100CD0002506FE0131968AEFDF011D928A95E9F71C
:100CE00000E010E07F010F2EFAEFBF2EF02DC12C97
:100CF000D12C01C08C010E941E0B8823E1F30E94BD
:100D0000F20AF701E00FF11F80830E944E0B0E9450
:100D1000380BC80101968431910530F4F701E00FDA
:100D2000F11F20812D3031F7F701E00FF11F108204
:100D3000C7010E94C603F7018B2D11928A95E9F72E
:100D40008601D9CF85B7816085BF85B7826085BFB1
:100D500010926E0010926F001092720084EF91E07A
:100D60000E9425060C94001C089581E00E94A301B6
:100D70009C01235431092138310530F482EA95E091
:100D80000E94700D81E008959C01295C31092D3786
:100D9000310530F48DEA95E00E94700D82E00895EF
:100DA0009C01275431402C37310530F488EB95E015
:100DB0000E94700D83E008959C01235C3140293628
:100DC000310530F483EC95E00E94700D84E00895C5
:100DD0009C012C5232402D37310530F48EEC95E0D9
:100DE0000E94700D85E008959C01295A32402238F6
:100DF000310530F489ED95E00E94700D86E008958C
:100E00008B5293408B37910530F484EE95E00E942D
:100E1000700D87E008958FEE95E00E94700D80E0E0
:100E200008951F920F920FB60F9211242F933F93A4
:100E30004F935F936F937F938F939F93AF93BF93E2
:100E4000EF93FF93469880E090E00E94BA0A1092D8
:100E500010061092110610921206109213061092AC
:100E6000140610921506109216061092170610928C
:100E700018061092190610921A0610921B06769AFE
:100E80000E94B506FF91EF91BF91AF919F918F9115
:100E90007F916F915F914F913F912F910F900FBE76
:100EA0000F901F90189580910201823099F018F4EC
:100EB000813059F505C08330B9F0843031F51EC05A
:100EC0002898299A2A9A2B98809102018F5F809303
:100ED00002010895289829982A9A2B9A8091020154
:100EE0008F5F809302010895289A29982A982B9A57
:100EF000809102018F5F809302010895289A299AB8
:100F00002A982B9881E08093020108958091020134
:100F1000823089F018F4813059F505C08330A9F08A
:100F2000843031F51CC0289A29982A982B9A84E09D
:100F3000809302010895289A299A2A982B988091E3
:100F4000020181508093020108952898299A2A9AD3
:100F50002B98809102018150809302010895289876
:100F600029982A9A2B9A809102018150809302013C
:100F700008950F931F930091180610911906209160
:100F80001A0630911B06DC01CB01800F911FA21FB6
:100F9000B31F8093180690931906A0931A06B09376
:100FA0001B061F910F91089580910101823099F0E5
:100FB00018F4813059F505C08330B9F0843031F52B
:100FC0001EC02C982D9A2E9A2F98809101018F5F28
:100FD0008093010108952C982D982E9A2F9A809134
:100FE00001018F5F8093010108952C9A2D982E980E
:100FF0002F9A809101018F5F8093010108952C9AAF
:101000002D9A2E982F9881E0809301010895809168
:101010000101823089F018F4813059F505C0833020
:10102000A9F0843031F51CC02C9A2D982E982F9A57
:1010300084E08093010108952C9A2D9A2E982F9880
:101040008091010181508093010108952C982D9A7F
:101050002E9A2F988091010181508093010108956B
:101060002C982D982E9A2F9A80910101815080936F
:10107000010108950F931F93009114061091150616
:101080002091160630911706DC01CB01800F911FCD
:10109000A21FB31F8093140690931506A093160603
:1010A000B09317061F910F9108958091000182302F
:1010B00099F018F4813059F505C08330B9F08430C7
:1010C00031F51EC05C985D9A5E9A5F988091000130
:1010D0008F5F8093000108955C985D985E9A5F9A97
:1010E000809100018F5F8093000108955C9A5D9864
:1010F0005E985F9A809100018F5F80930001089550
:101100005C9A5D9A5E985F9881E0809300010895F3
:1011100080910101823089F018F4813059F505C0C1
:101120008330A9F0843031F51CC05C9A5D985E98DC
:101130005F9A84E08093000108955C9A5D9A5E98BE
:101140005F988091000181508093000108955C9820
:101150005D9A5E9A5F9880910001815080930001B2
:1011600008955C985D985E9A5F9A80910001815025
:101170008093000108950F931F9300911006109122
:1011800011062091120630911306DC01CB01800F6D
:10119000911FA21FB31F8093100690931106A09376
:1011A0001206B09313061F910F91089520911C060B
:1011B00030911D0640911E0650911F06DC010E94D1
:1011C000C40DDC01CB01072E79E0B695A795979564
:1011D00087957A95D1F7702D492F5A2F6B2F772746
:1011E0004093BF008093CF000895E0ECF0E0808151
:1011F000806880830895E0ECF0E080818F778083C1
:1012000008959B01AC0160E07CE68CED92E00E94C9
:101210009C0D2F3F63E036074105510550F42093A4
:101220001C0630931D0640931E0650931F0681E056
:1012300071C12E3F67E036074105510580F4DA01A0
:10124000C901B695A7959795879580931C069093AD
:101250001D06A0931E06B0931F0682E05BC12C3FC3
:101260006FE0360741055105A0F4DA01C901B695D2
:10127000A79597958795B695A79597958795809308
:101280001C0690931D06A0931E06B0931F0683E0D4
:1012900041C1283F6FE1360741055105A0F4DA014D
:1012A000C901689412F8B695A795979587951694F5
:1012B000D1F780931C0690931D06A0931E06B09351
:1012C0001F0684E027C1203F6FE336074105510523
:1012D000A0F4DA01C901689413F8B695A79597951B
:1012E00087951694D1F780931C0690931D06A093C2
:1012F0001E06B0931F0685E00DC1203E6FE736073E
:1013000041055105A0F4DA01C901689414F8B695B5
:10131000A795979587951694D1F780931C0690937F
:101320001D06A0931E06B0931F0686E0F3C0203C66
:101330006FEF360741055105A0F4DA01C901689441
:1013400015F8B695A795979587951694D1F780933C
:101350001C0690931D06A0931E06B0931F0687E0FF
:10136000D9C020386FEF360761E046075105A0F479
:10137000DA01C901689416F8B695A79597958795EF
:101380001694D1F780931C0690931D06A0931E0619
:10139000B0931F0688E0BEC021156FEF360763E0EB
:1013A0004607510570F4BB27A52F942F832F8093F8
:1013B0001C0690931D06A0931E06B0931F0689E09D
:1013C000A9C021156EEF360767E046075105A8F45E
:1013D000DA01C901072E79E0B695A795979587950B
:1013E0007A95D1F7702D80931C0690931D06A093DB
:1013F0001E06B0931F068AE08DC021156CEF3607DC
:101400006FE046075105A8F4DA01C901072E7AE01A
:10141000B695A795979587957A95D1F7702D809376
:101420001C0690931D06A0931E06B0931F068BE02A
:1014300071C0211568EF36076FE146075105A8F422
:10144000DA01C901072E7BE0B695A7959795879598
:101450007A95D1F7702D80931C0690931D06A0936A
:101460001E06B0931F068CE055C0211560EF3607AD
:101470006FE346075105A8F4DA01C901072E7CE0A5
:10148000B695A795979587957A95D1F7702D809306
:101490001C0690931D06A0931E06B0931F068DE0B8
:1014A00039C0211560EE36076FE746075105A8F4ED
:1014B000DA01C901072E7DE0B695A7959795879526
:1014C0007A95D1F7702D80931C0690931D06A093FA
:1014D0001E06B0931F068EE01DC0211560EC360776
:1014E0006FEF46075105A8F4DA01C901072E7EE027
:1014F000B695A795979587957A95D1F7702D809396
:101500001C0690931D06A0931E06B0931F068FE045
:1015100001C080E08093C10080911C0690911D065F
:10152000A0911E06B0911F06892F9A2FAB2FBB27C3
:101530008093BF0080911C068093D100089522E023
:101540002093C00020E42093C40021E02093C30036
:101550001092C2000E940109089560E177E280E0E4
:1015600090E00E949F0A80E092E00E94D6080E94CC
:10157000F5080895CF93DF93EC01009739F480E0EC
:1015800090E00E94D6080E94FB0810C0C13084E0A1
:10159000D80730F40E94F508CE010E94D60806C094
:1015A0000E94F50880E094E00E94D608DF91CF9178
:1015B000089581E08093D70080EA8093D80082E18B
:1015C00089BD09B400FEFDCF80E98093D800109258
:1015D000E00010922106109222068CE08093E20037
:1015E000789408952FB7F89480912106811103C053
:1015F0002FBF8FEF089583E08093E9008091E8008A
:1016000085FD11C082FD04C00BC082FD04C008C06E
:10161000E8EEF0E09BE69083808185FFF6CF03C083
:101620002FBF8FEF08958091F1009091E80095FD14
:1016300003C09BE69093E8002FBF08959FB7F894EE
:1016400080912106882389F083E08093E9008091CE
:10165000F20081110BC02091E80022FF07C025FD98
:1016600005C02BE62093E80001C080E09FBF0895ED
:1016700080912106882389F02FB7F89483E0809326
:10168000E9008091E80085FF07C0E8EEF0E09BE606
:101690009083808185FDFCCF2FBF0895CF93DF938A
:1016A00090912106992309F44DC09FB7F89424E046
:1016B0002093E90020912306222349F02091E8009D
:1016C00025FD03C09FBF8FEF42C0109223063091CB
:1016D000E400375E2091E80025FD25C09FBF909172
:1016E000E400931749F09091210691110FC02CC08E
:1016F0009FBF9881931305C081E0809323068FEFED
:1017000026C090912106911108C020C0A9EEB0E03A
:1017100044E0E8EEF0E0C4EED0E09FB7F8944C93DC
:10172000208125FFE5CF8093F1008091E80085FDC1
:1017300003C08AE38093E80085E0809320069FBF82
:1017400080E005C08FEF03C08FEF01C08FEFDF9106
:10175000CF9108951F920F920FB60F9211248F937D
:101760009F93EF93FF93E1EEF0E08081108283FF7F
:1017700011C01092E90091E09093EB001092EC0000
:1017800092E19093ED0098E09093F0001092210682
:101790001092220682FF13C080912106882379F0DF
:1017A00080912006882359F0815080932006811172
:1017B00006C084E08093E9008AE38093E800FF910B
:1017C000EF919F918F910F900FBE0F901F901895E2
:1017D0001F920F920FB60F9211240F931F932F9306
:1017E0003F934F935F936F937F938F939F93AF93A9
:1017F000BF93CF93DF93EF93FF931092E900809113
:10180000E80083FF51C1E1EFF0E070814081208169
:101810003081932F80E0DC01A22B9D0150816081FB
:10182000962F80E0852BA081B08152EF5093E80085
:10183000463009F05CC004C081E28093EB003BC1FC
:10184000C6E046E352E0FA01659174912617370726
:1018500019F0495F5F4F20C0FA013296659174918B
:101860008617970719F0495F5F4F16C0FA01349643
:1018700085919491282F392FFA01369644919B2F08
:1018800080E08A2B8F3F910519F010F08FEF90E0E8
:10189000841728F4482F03C0C150A9F6CDCFC8EE55
:1018A000D0E07EEFA1EFB0E010E18881982F957035
:1018B000E1F382FD00C1642F413108F0612F6623FE
:1018C00009F4F6C0C901562FFC010196E491EC938E
:1018D0005150D1F7862F815090E00196280F391F83
:1018E000461B78834111E1CF6031F9F2E4C0453005
:1018F00061F48EEF8093E800E8EEF0E0808180FFF5
:10190000FDCF20682093E300D6C04930A1F57111C6
:101910005BC02093210610922206109220068EEFC3
:101920008093E80011E080E692E0C9EED0E0ABEEF3
:10193000B0E06CEE70E04DEE50E018839C012F5F3C
:101940003F4FFC0104910C93002359F0F9012491BD
:10195000FB012083FC01329603962491FA01208337
:1019600001C0C9011F5F153041F7EAEEF0E08EE1DA
:1019700080831082A0C0483081F4703809F03FC0E5
:10198000E8EEF0E0808180FFFDCF8091210680931A
:10199000F1008EEF8093E8008EC04132A9F4713AD5
:1019A000F1F5E8EEF0E0808180FFFDCFE3E0F1E0CB
:1019B000A1EFB0E081918C9341E0EA30F407D1F7D8
:1019C0008EEF8093E80077C04032C9F4713209F09D
:1019D0006BC0E8EEF0E0808182FFFDCFE3E0F1E054
:1019E000A1EFB0E08C91819351E0EA30F507D1F797
:1019F000E8EEF0E08BEF80838EEF80835CC04232B4
:101A000071F4713209F050C020932206E8EEF0E044
:101A1000808180FFFDCF8EEF8093E8004CC04111A4
:101A20001AC0E8EEF0E0208120FFFDCF723851F4BB
:101A3000E9EEF0E080838091EB0085FB882780F958
:101A4000108201C080E0E1EFF0E0808310828EEF31
:101A50008093E80030C0413011F0433029F57230F6
:101A600019F5232B09F58F779927382F315034300A
:101A7000D8F43EEF3093E8008093E900433021F43E
:101A800081E28093EB0017C099E19093EB0021E095
:101A900030E0D90102C0AA0FBB1F8A95E2F7EAEE37
:101AA000F0E0A083108207C081E28093EB0003C0C6
:101AB00078834111FACEFF91EF91DF91CF91BF91E1
:101AC000AF919F918F917F916F915F914F913F91D6
:101AD0002F911F910F910F900FBE0F901F9018958F
:101AE000CF93DF93EC018991882329F00E944E0B5C
:101AF00089918111FBCFDF91CF910895CF93DF932F
:101B0000CDB7DEB764970FB6F894DEBF0FBECDBF7A
:101B10002AE030E0AE014F5F5F4F0E94100ECE0111
:101B200001960E94700D64960FB6F894DEBF0FBE4A
:101B3000CDBFDF91CF910895A1E21A2EAA1BBB1B46
:101B4000FD010DC0AA1FBB1FEE1FFF1FA217B30789
:101B5000E407F50720F0A21BB30BE40BF50B661F9F
:101B6000771F881F991F1A9469F760957095809563
:101B700090959B01AC01BD01CF010895EE0FFF1FB1
:101B80000590F491E02D09940E94CF0DA59F900D32
:101B9000B49F900DA49F800D911D11240895A29FC4
:101BA000B001B39FC001A39F01D0B29F700D811DF2
:101BB0001124911D08951F93FC0199278827BC01CA
:101BC000E89411911032E9F3193010F01E30C8F387
:101BD0001B3251F01D3249F4689406C00E94440E35
:101BE000610F711D811D911D119110531A30B0F3B9
:101BF0003EF490958095709561957F4F8F4F9F4FE4
:101C00001F910895FB01DC014150504030F08D914F
:101C10000190801919F40020B9F7881B990B0895D9
:101C2000FA01CF93FF93EF93223044F1253234F53C
:101C3000C22FE894CA3049F497FB3EF49095809502
:101C4000709561957F4F8F4F9F4F2C2F33274427DF
:101C50005527FF93EF930E949C0DEF91FF91605DDC
:101C60006A330CF0695D6193B901CA01605070403C
:101C70008040904051F716F4CDE2C19310828F91CD
:101C80009F91CF910C94590E592F482F372F262F03
:101C9000660F771F881F991F660F771F881F991F70
:101CA000620F731F841F951F660F771F881F991F70
:101CB0000895DC01FC01672F71917723E1F73297DA
:101CC00004C07C916D9370836291AE17BF07C8F317
:061CD0000895F894FFCF17
:101CD60001010100E100000000080D0A4261636B8A
:101CE60020746F20636D64206D6F64650D0A240097
:101CF6000D0A656E61626C6520737465707065723D
:101D06000D0A00285E203230302900287620323035
:101D1600302900283C203230302900283E2032303D
:101D2600302900200D0A20646961676F6E616C209E
:101D36006F6B61790D0A002D20646961676F6E61B2
:101D46006C206F6B61790D0A000D0A746F6F6C2041
:101D560073746F70200D0A000D0A746F6F6C206922
:101D66006E697420646F6E65200D0A000D0A746F2B
:101D76006F6C2073706565642073657420746F3AA8
:101D8600200020203F202068696C6674000D0A3D03
:101D96003D3D3D3D3D3D3D3D3D3D3D3D3D3D3D3D6D
:101DA6003D3D3D3D3D3D3D3D3D3D3D3D3D3D3D3D5D
:101DB6003D3D3D3D3D3D3D3D3D3D3D3D3D3D3D3D4D
:101DC6003D0D0A0D0A2045696E7A656C737465705F
:101DD6003A200D0A773A09766F72205820616368B7
:101DE6007365200D0A733A097A75720A39636B2096
:101DF60058206163687365200D0A613A09766F722F
:101E06002059206163687365200D0A643A097A7562
:101E160072FC636B2059206163687365200D0A0D9F
:101E26000A203120756D64726568756E672073745B
:101E360065703A200D0A723A09766F722058206151
:101E460063687365200D0A663A097A7572FC636BDE
:101E56002058206163687365200D0A713A09766F10
:101E6600722059206163687365200D0A653A097A04
:101E76007572FC636B2059206163687365200D0AD7
:101E86000D0A6F3A09766F7220582B5920616368E4
:101E96007365200D0A703A097A7572FC636B2058D7
:101EA6002B59206163687365200D0A0D0A20546F53
:101EB6006F6C3A200D0A743A2053657420746F6F64
:101EC6006C2073706565642028706F74692077656F
:101ED6007274290D0A693A20696E697420746F6FED
:101EE6006C2028353132290D0A7A3A2073746F70C6
:101EF60020746F6F6C090D0A0D0A7920616B746985
:101F060076696572742064696520747265696265B4
:101F160072206E616368206E6F746175730D0A4579
:101F2600534320746F206C656176652067636F6428
:101F360065206D6F64653F3A202068696C66652090
:101F46000D0A00756E62656B616E6E746572206255
:101F5600656665686C20202D20203F2066FC722077
:101F660068696C666500636D64000D0A436F6D6D8C
:101F7600616E64206C696E65206D6F6465202D202E
:101F86004F4B200D0A0068656C70000D0A20412039
:101F960077696C642068656C70206D657565206175
:101FA60070706572617273202D20206E6F740D0A39
:101FB6002400757074696D65000D0A757074696D1D
:101FC600653A006C6564206F6E000D0A206C6564CE
:101FD6002065696E6765736368616C746574200D4E
:101FE6000A24006C6564206F6666000D0A206C6525
:101FF60064206175736765736368616C74657420CA
:102006000D0A24006D6F76657820006D6F76657910
:1020160020006D6F76657A200074656D7000204132
:10202600565220436F72652054656D703A20200029
:1020360020B043200D0A240067636F646500596F62
:10204600752061726520696E2047636F64652D4D4A
:102056006F6465206E6F7720202D20204553432026
:10206600746F206C65617665200D0A3E006578699F
:1020760074000D0A20436F6D6D616E64206C696E8D
:102086006520636C6F73656400626F6F74000D0A80
:10209600203D3D3D3D3D3D3D3D3D3D3D3D3D3D3D87
:1020A6003D3D3D3D3D3D3D3D3D3D3D3D3D3D3D3D5A
:1020B6003D3D3D3D3D3D3D3D3D3D3D3D3D3D3D3D4A
:1020C6003D3D3D3D3D3D3D3D3D3D0D0A7C7C090987
:1020D60020426F6F746C6F61646572206D6F64650A
:1020E600090909207C7C0D0A203D3D3D3D3D3D3DD5
:1020F6003D3D3D3D3D3D3D3D3D3D3D3D3D3D3D3D0A
:102106003D3D3D3D3D3D3D3D3D3D3D3D3D3D3D3DF9
:102116003D3D3D3D3D3D3D3D3D3D3D3D3D3D3D3DE9
:102126003D3D20000D0A20756E6B6E6F776E206345
:102136006F6D6D616E6420273F2720666F72206881
:10214600656C700D0A24000D0A20747970652027CD
:10215600636D642720746F20656E74657220636FEB
:102166006D6D616E64206C696E65206D6F64650DC2
:102176000A000D0A627574746F6E2031000D0A62D2
:102186007574746F6E2032000D0A627574746F6E0A
:102196002033000D0A627574746F6E2034000D0AC8
:1021A600627574746F6E2035000D0A627574746FF3
:1021B6006E2036000D0A627574746F6E2037000D3E
:1021C6000A756E61626C6520746F207265616420A9
:0821D600627574746F6E000065
:04000003000011EAFE
:00000001FF
