:100000000C9456000C9473000C9473000C947300C1
:100010000C9473000C9473000C9473000C94730094
:100020000C9473000C9473000C9473000C94730084
:100030000C9473000C9473000C9473000C94730074
:100040000C9473000C9473000C9473000C94730064
:100050000C9473000C9473000C9473000C94730054
:100060000C9473000C9465040C943A040C94730083
:100070000C9473000C9473000C9473000C94730034
:100080000C9473000C9473000C9473000C94730024
:100090000C9473000C9473000C9473000C94730014
:1000A0000C9473000C94AA010C94730011241FBECD
:1000B000CFEFDAE0DEBFCDBF11E0A0E0B1E0EEE8C7
:1000C000F9E002C005900D92A231B107D9F721E005
:1000D000A2E1B1E001C01D92A238B207E1F70E948F
:1000E000AF030C94C5040C940000EAE7F0E09081A3
:1000F0009F77908390819F7B9083883009F475C0AF
:1001000078F48430D1F130F48823F1F0813009F0B3
:10011000EEC025C0863009F44CC008F058C03BC082
:100120008B3009F489C038F4893009F469C08A3009
:1001300009F0DDC073C08D3009F49AC008F48AC09C
:10014000843109F0D4C0A2C0ECE7F0E08081807E69
:100150008083EBE7F0E080818F7D8083A4C0ECE7B3
:10016000F0E08081817E8083808181608083EBE705
:10017000F0E080818F7D808396C0ECE7F0E08081A5
:10018000847E8083808184608083EBE7F0E08081DF
:100190008F7D808388C0ECE7F0E08081856080837C
:1001A0008081857E8083EBE7F0E080818F7D808396
:1001B0007AC0ECE7F0E08081866080838081867E73
:1001C0008083EBE7F0E080818F7D80836CC0ECE77B
:1001D000F0E08081876080838081877E8083EBE789
:1001E000F0E080818F7D80835EC0ECE7F0E080816D
:1001F000807E8083EBE7F0E080818062808353C063
:10020000ECE7F0E08081817E808380818160808363
:10021000EBE7F0E080818062808345C0ECE7F0E0AE
:100220008081827E8083808182608083EBE7F0E042
:1002300080818062808337C0ECE7F0E08081837E3C
:100240008083808183608083EBE7F0E0808180623F
:10025000808329C0ECE7F0E08081847E8083808108
:1002600084608083EBE7F0E08081806280831BC044
:10027000ECE7F0E08081857E8083808185608083EB
:10028000EBE7F0E08081806280830DC0ECE7F0E076
:100290008081877E8083808187608083EBE7F0E0C8
:1002A000808180628083EAE7F0E0808180688083DB
:1002B000808180648083808186FDFDCF10927900EB
:1002C0001092780028E0EAE7F0E0A8E7B0E080814B
:1002D00080648083808186FDFDCF8D919C911197F4
:1002E0002150A9F7209178003091790002C020E0D8
:1002F00030E0822F932F0895ECE7F0E080818F7B30
:10030000808380818F77808380B38C7F80BB808166
:100310008F7D80838081827E8083808182608083E4
:10032000ABE7B0E08C9180628C93EAE7F0E08081EB
:100330008760808380818F7D80838C9180688C939F
:10034000808180688083808180648083808186FD55
:10035000FDCF08951F920F920FB60F9211240F90A8
:100360000FBE0F901F90189520911201309113012C
:100370004091140150911501DC010E94AE04DC0192
:10038000CB01072E79E0B695A795979587957A9535
:10039000D1F7702D492F5A2F6B2F77274093BF002D
:1003A0008093CF000895E0ECF0E080818068808346
:1003B0000895E0ECF0E080818F77808308959B01C1
:1003C000AC0160E076E38EE691E00E948C042F3F62
:1003D00063E036074105510550F420931201309334
:1003E0001301409314015093150181E071C12E3F18
:1003F00067E036074105510580F4DA01C901B69579
:10040000A795979587958093120190931301A093D8
:100410001401B093150182E05BC12C3F6FE03607F9
:1004200041055105A0F4DA01C901B695A795979544
:100430008795B695A7959795879580931201909388
:100440001301A0931401B093150183E041C1283F2B
:100450006FE1360741055105A0F4DA01C90168943E
:1004600012F8B695A795979587951694D1F780932E
:10047000120190931301A0931401B093150184E02D
:1004800027C1203F6FE3360741055105A0F4DA018B
:10049000C901689413F8B695A79597958795169412
:1004A000D1F78093120190931301A0931401B0939C
:1004B000150185E00DC1203E6FE736074105510566
:1004C000A0F4DA01C901689414F8B695A795979538
:1004D00087951694D1F78093120190931301A093FE
:1004E0001401B093150186E0F3C0203C6FEF36078E
:1004F00041055105A0F4DA01C901689415F8B695D3
:10050000A795979587951694D1F7809312019093AC
:100510001301A0931401B093150187E0D9C02038CE
:100520006FEF360761E046075105A0F4DA01C90113
:10053000689416F8B695A795979587951694D1F770
:100540008093120190931301A0931401B0931501AD
:1005500088E0BEC021156FEF360763E046075105FE
:1005600070F4BB27A52F942F832F809312019093B3
:100570001301A0931401B093150189E0A9C02115BE
:100580006EEF360767E046075105A8F4DA01C901A6
:10059000072E79E0B695A795979587957A95D1F727
:1005A000702D8093120190931301A0931401B093C6
:1005B00015018AE08DC021156CEF36076FE0460704
:1005C0005105A8F4DA01C901072E7AE0B695A7957E
:1005D000979587957A95D1F7702D80931201909316
:1005E0001301A0931401B09315018BE071C0211584
:1005F00068EF36076FE146075105A8F4DA01C90133
:10060000072E7BE0B695A795979587957A95D1F7B4
:10061000702D8093120190931301A0931401B09355
:1006200015018CE055C0211560EF36076FE34607D2
:100630005105A8F4DA01C901072E7CE0B695A7950B
:10064000979587957A95D1F7702D809312019093A5
:100650001301A0931401B09315018DE039C0211549
:1006600060EE36076FE746075105A8F4DA01C901C5
:10067000072E7DE0B695A795979587957A95D1F742
:10068000702D8093120190931301A0931401B093E5
:1006900015018EE01DC0211560EC36076FEF46078F
:1006A0005105A8F4DA01C901072E7EE0B695A79599
:1006B000979587957A95D1F7702D80931201909335
:1006C0001301A0931401B09315018FE001C080E0E5
:1006D0008093C1008091120190911301A0911401A7
:1006E000B0911501892F9A2FAB2FBB278093BF00A4
:1006F000809112018093D100089524E022BF22E06E
:1007000029BD09B400FEFDCF22B7206122BF22E03F
:100710002093C00020E42093C40021E02093C30074
:100720001092C2000E94DF010895CF93DF93EC0185
:100730008991882329F00E94250489918111FBCF9A
:10074000DF91CF910895009749F00197EFE9FFE01D
:100750003197F1F700C000000097B9F7089580E8DD
:1007600090E00FB6F89480936100909361000FBE03
:1007700085BF6E9A559A8FEF84B93F9A10BA5098F8
:10078000589A5198599A6E9A0E947C0160E875E2D5
:1007900080E090E00E94FC0380E091E00E949503DD
:1007A00084EF91E00E94A30360E573EC80E090E0A9
:1007B0000E947D0380E092E00E94B4010E94D30178
:1007C000769A0E94D90180E00E947500282F392F67
:1007D000220F331FB901660F771F660F771F620F55
:1007E000731F80E090E00E94DF010E94D3018AEF36
:1007F00090E00E94A303E5CF9B01AC01F89460E078
:1008000079E08DE390E00E948C04DA01C901019740
:10081000A109B109B695A795979587959093CD00B5
:100820008093CC0082E08093C80088E98093C9005F
:1008300086E08093CA0010925801109259011092DC
:1008400016011092170178940895209159012F5F95
:10085000283208F020E0909158012917E1F3E22FA7
:10086000F0E0E65AFE4F80832093590188EB809395
:10087000C90008951F920F920FB60F9211248F9303
:100880009F93EF93FF939091590180915801981392
:1008900004C088E98093C9000FC0809158018F5F20
:1008A000883208F080E0E82FF0E0E65AFE4F9081B1
:1008B0009093CE0080935801FF91EF919F918F917B
:1008C0000F900FBE0F901F9018951F920F920FB6AA
:1008D0000F9211242F938F939F93EF93FF93209167
:1008E000CE00809117018F5F803408F080E09091F6
:1008F0001601891739F0E82FF0E0E85EFE4F2083FB
:1009000080931701FF91EF919F918F912F910F90FD
:100910000FBE0F901F901895A1E21A2EAA1BBB1BA9
:10092000FD010DC0AA1FBB1FEE1FFF1FA217B307BB
:10093000E407F50720F0A21BB30BE40BF50B661FD1
:10094000771F881F991F1A9469F760957095809595
:1009500090959B01AC01BD01CF0108950E94B9049F
:10096000A59F900DB49F900DA49F800D911D112403
:100970000895A29FB001B39FC001A39F01D0B29F71
:0E098000700D811D1124911D0895F894FFCF74
:10098E007561727420696E697420646F6E65200DD6
:02099E000A004D
:04000003000003A650
:00000001FF
