S00F0000737465707065722E7372656312
S11300000C9484010C94BE060C94A1010C94A101DF
S11300100C94A1010C94A1010C94A1010C94A101D4
S11300200C94A1010C94A1010C94570B0C94950B06
S11300300C94A1010C94A1010C94A1010C94A101B4
S11300400C94A1010C948F050C94A1010C94A101B2
S11300500C94A1010C94A1010C94A1010C94A10194
S11300600C94A1010C94A1010C94A1010C94A10184
S11300700C94A1010C94A1010C94A1010C94A10174
S11300800C94A1010C94A1010C94A1010C94A10164
S11300900C94A1010C94A1010C94A1010C94A10154
S11300A00C94A1010C94A1010C94A101F602BF03CC
S11300B0BF03BF03BF03A903BF03BF03BF03BF0342
S11300C0BF03BF03BF03BF03BF03BF037B03BF0360
S11300D08203BF03BF03BF03BF03BF03BF03BF0349
S11300E0BF03BF03BF03BF03BF03BF03BF03BF03FC
S11300F0BF03BF03B603BF03BF03BF03BF03BF03F5
S1130100BF03BF03BF03BF03BF03BF03BF03BF03DB
S1130110BF03BF03BF03BF03BF03BF03BF03BF03CB
S1130120BF03BF03BF03BF03BF03BF03BF03BF03BB
S1130130BF03BF03BF03BF033A03BF03BF033003BF
S11301404E032503BF03BF039203BF03BF03BF03D3
S1130150BF03BF0359036A0343031A03110399033B
S1130160BF03BF030703BF0300038903BF03BF0328
S1130170BF03BF03BF03BF03BF03BF03BF03BF036B
S1130180BF03BF03BF03BF03BF03BF03BF03BF035B
S1130190BF03BF03BF03BF03BF03BF03BF03BF034B
S11301A0BF03BF03BF03BF03BF03BF03BF03BF033B
S11301B0BF03BF03BF03BF03BF03BF03BF03BF032B
S11301C0BF03BF03BF03BF03BF03BF03BF03BF031B
S11301D0BF03BF03BF03BF03BF03BF03BF03BF030B
S11301E0BF03BF03BF03BF03BF03BF03BF03BF03FB
S11301F0BF03BF03BF03BF03BF03BF03BF03BF03EB
S1130200BF03BF03BF03BF03BF03BF03BF03BF03DA
S1130210BF03BF03BF03BF03BF03BF03BF03BF03CA
S1130220BF03BF03BF03BF03BF03BF03BF03BF03BA
S1130230BF03BF03B603000100006A0212000200FC
S1130240007C024300030000BF020401030904C34D
S1130250021402030904D9021E03030904F9020C5F
S11302600001C11201803601813612010002020030
S11302700010ADDEFEAF00010102030109024300DC
S1130280020100C032090400000102020100052439
S113029000100105240101010424020605240600BE
S11302A0010705820310004009040100020A00004E
S11302B00007050302400000070584024000000413
S11302C0030904140363006E0063004000730068B4
S11302D000610063006B0000001E035500530042E0
S11302E0002000530065007200690061006C00206A
S11302F00043004E00430000000C0330003000387F
S1130300003100350000000011241FBECFEFDAE0F9
S1130310DEBFCDBF15E0A0E0B1E0E0E3FCE102C048
S113032005900D92A83EB107D9F726E0A8EEB5E0F6
S113033001C01D92A430B207E1F70E94DB050C94C2
S1130340160E0C940000CF93DF93EAE7F0E090815F
S11303509F77908390819F7B9083883009F475C048
S113036078F48430D1F130F48823F1F0813009F04D
S1130370F9C025C0863009F44CC008F058C03BC011
S11303808B3009F489C038F4893009F469C08A30A3
S113039009F0E8C073C08D3009F49AC008F48AC02B
S11303A0843109F0DFC0A2C0ECE7F0E08081807EF8
S11303B08083EBE7F0E080818F7D8083A4C0ECE74D
S11303C0F0E08081817E8083808181608083EBE79F
S11303D0F0E080818F7D808396C0ECE7F0E080813F
S11303E0847E8083808184608083EBE7F0E0808179
S11303F08F7D808388C0ECE7F0E080818560808316
S11304008081857E8083EBE7F0E080818F7D80832F
S11304107AC0ECE7F0E08081866080838081867E0C
S11304208083EBE7F0E080818F7D80836CC0ECE714
S1130430F0E08081876080838081877E8083EBE722
S1130440F0E080818F7D80835EC0ECE7F0E0808106
S1130450807E8083EBE7F0E080818062808353C0FC
S1130460ECE7F0E08081817E8083808181608083FD
S1130470EBE7F0E080818062808345C0ECE7F0E048
S11304808081827E8083808182608083EBE7F0E0DC
S113049080818062808337C0ECE7F0E08081837ED6
S11304A08083808183608083EBE7F0E080818062D9
S11304B0808329C0ECE7F0E08081847E80838081A2
S11304C084608083EBE7F0E08081806280831BC0DE
S11304D0ECE7F0E08081857E808380818560808385
S11304E0EBE7F0E08081806280830DC0ECE7F0E010
S11304F08081877E8083808187608083EBE7F0E062
S1130500808180628083EAE7F0E080818068808374
S1130510808180648083808186FDFDCF1092790084
S11305201092780044E080E090E0DC01EAE7F0E03B
S1130530C8E7D0E0208120642083208126FDFDCF00
S113054028813981820F931FA11DB11D415091F75C
S1130550B695A79597958795B695A79597958795F9
S11305609C0102C020E030E0822F932FDF91CF91D5
S11305700895ECE7F0E080818F7B808380818F7722
S1130580808380B38C7F80BB80818F7D80838081DA
S1130590877E8083808187608083ABE7B0E08C9125
S11305A080628C93EAE7F0E08081876080838081B9
S11305B08F7D80838C9180688C9380818068808318
S11305C0808180648083808186FDFDCF0895CF93F0
S11305D0DF93FC01808190E0FC017B97E53CF10511
S11305E008F0CDC0EA5AFF4F0C946B0D1092E80549
S11305F081E08093E9058AE091E00E941D0DC3C06B
S11306007698469A80E291E00E941D0DBCC061E09C
S113061070E080E090E00E9466078EE50E94FB0A8D
S1130620B2C06FEF7FEFCB010E94660786E70E949E
S1130630FB0AA9C068EC70E080E090E00E946607C5
S113064083E391E00E941D0D9EC068E37FEF8FEF6E
S11306509FEF0E9466078BE391E00E941D0D93C0FB
S113066061E070E080E090E00E94E7078CE30E9484
S1130670FB0A89C06FEF7FEFCB010E94E7078EE38F
S11306800E94FB0A80C068E37FEF8FEF9FEF0E9418
S1130690E70783E491E00E941D0D75C068EC70E0EB
S11306A080E090E00E94E7078BE491E00E941D0D3A
S11306B06AC068EC70E080E090E00E94660768EC35
S11306C070E080E090E00E94E70783E591E00E94FB
S11306D01D0D59C068E37FEF8FEF9FEF0E946607FF
S11306E068E37FEF8FEF9FEF0E94E70787E691E0D3
S11306F00E941D0D48C064E170E080E090E00E941B
S1130700680841C06CEE7FEF8FEF9FEF0E9468088E
S11307103AC080E090E00E94670A89E791E00E9475
S11307201D0D31C00E945A0A88E891E00E941D0DF7
S11307302AC080E00E94A301EC010E94670A8CE9B0
S113074091E00E941D0DBE0180E090E00E942B0DFF
S11307501AC060EE71EB8FEF9FEF0E94660760EEA8
S113076071EB8FEF9FEF0E94E7070DC082EB91E0E2
S11307700E941D0D8DEB91E00E941D0D04C083E7C6
S113078093E00E941D0DDF91CF910895CF93DF93E5
S1130790EC018091E805882321F0CE010E94E70254
S11307A00DC143E050E066E973E0CE010E94AF0D55
S11307B0282F392F232B39F481E08093E9058AE926
S11307C093E00E941D0D8091E905882309F4EFC090
S11307D088818F3359F044E050E066EB73E0CE013A
S11307E00E94AF0D282F392F232B29F48BEB93E094
S11307F00E941D0DE3C046E050E062EE73E0CE01BE
S11308000E94AF0D282F392F232B69F489EE93E032
S11308100E941D0D0E94C6050E942B0D8FE094E0DE
S11308200E941D0DCBC046E050E063EF73E0CE01A3
S11308300E94AF0D282F392F232B31F4769A8AEF9B
S113084093E00E941D0DBAC047E050E063E174E0FC
S1130850CE010E94AF0D282F392F232B31F4769827
S11308608BE194E00E941D0DA9C046E050E064E3D2
S113087074E0CE010E94AF0D282F392F232B89F469
S1130880CE0106960E94880D9B01AC01A8ECB0E055
S11308900E94710D0E9466078EE094E00E941D0D77
S11308A08DC046E050E06BE374E0CE010E94AF0DD2
S11308B0282F392F232B89F4CE0106960E94880D08
S11308C09B01AC01A8ECB0E00E94710D0E94E70707
S11308D08EE094E00E941D0D71C046E050E062E499
S11308E074E0CE010E94AF0D282F392F232B89F4F9
S11308F0CE0106960E94880D9B01AC01A8ECB0E0E5
S11309000E94710D0E9468088EE094E00E941D0D03
S113091055C045E050E069E474E0CE010E94AF0D9B
S1130920282F392F232B51F481E08093E80510926E
S1130930E9058FE494E00E941D0D40C044E050E0BE
S11309406EE774E0CE010E94AF0D282F392F232BC0
S113095039F41092E90583E894E00E941D0D2EC03D
S113096044E050E06AE974E0CE010E94AF0D282F04
S1130970392F232B39F48FE994E00E941D0D0E9436
S11309804F061CC043E050E066E973E0CE010E94CC
S1130990AF0D282F392F232B29F48FE094E00E94E8
S11309A01D0D0CC085E395E00E941D0D07C0CE010E
S11309B00E941D0D88E595E00E941D0DDF91CF91E9
S11309C00895109280008BE0809381001092820041
S11309D010928500109284008AEF90E09093890031
S11309E08093880082E080936F0008958091F805D9
S11309F09091F905A091FA05B091FB051816190616
S1130A001A061B0674F40197A109B1098093F8052D
S1130A109093F905A093FA05B093FB050E94000793
S1130A200FC0BB236CF40196A11DB11D8093F80582
S1130A309093F905A093FA05B093FB050E94330740
S1130A408091F4059091F505A091F605B091F70514
S1130A50181619061A061B0674F40197A109B109A0
S1130A608093F4059093F505A093F605B093F705EC
S1130A700E9481070FC0BB236CF40196A11DB11D18
S1130A808093F4059093F505A093F605B093F705CC
S1130A900E94B4078091F0059091F105A091F205B0
S1130AA0B091F305181619061A061B0674F401977B
S1130AB0A109B1098093F0059093F105A093F20583
S1130AC0B093F3050E9402080895BB236CF40196C9
S1130AD0A11DB11D8093F0059093F105A093F2053B
S1130AE0B093F3050E94350808958091EA0590912A
S1130AF0EB0501969093EB058093EA0580E00E9454
S1130B00A3012091EA053091EB052817390730F04D
S1130B101092EB051092EA050E94F60408951F92C4
S1130B200F920FB60F9211242F933F934F935F931D
S1130B306F937F938F939F93AF93BF93EF93FF93A1
S1130B408091EC059091ED05A091EE05B091EF0533
S1130B500196A11DB11D8093EC059093ED05A09322
S1130B60EE05B093EF050E947505FF91EF91BF91DB
S1130B70AF919F918F917F916F915F914F913F9131
S1130B802F910F900FBE0F901F9018956091EC0558
S1130B907091ED058091EE059091EF050895009711
S1130BA049F00197EFE9FFE03197F1F700C0000049
S1130BB00097B9F70895CF93DF93CDB7DEB7CA5F37
S1130BC0D1090FB6F894DEBF0FBECDBF80E890E028
S1130BD00FB6F89480936100909361000FBE85BFB7
S1130BE06E9A8FEF84B98AB1806F8AB93F9A3E9A20
S1130BF00E94B9020E94860A0E94E1048AEF90E0F2
S1130C000E94CF0580E00E94A301469A5098589A0A
S1130C10E9E6F0E080818C7F80838AE090E00E94A6
S1130C20CF05E89A8AE090E00E94CF05FE01319654
S1130C308AEFDF011D928A95E9F700E010E07F0159
S1130C400F2EFAEFBF2EF02DC12CD12C01C08C0138
S1130C500E94CB0A8823E1F30E949F0AF701E00F68
S1130C60F11F80830E94FB0A0E94E50AC8010196D5
S1130C708431910530F4F701E00FF11F20812D300C
S1130C8031F7F701E00FF11F1082C7010E94C6037C
S1130C90F7018B2D11928A95E9F78601D9CF85B793
S1130CA0816085BF85B7826085BF10926E00109207
S1130CB06F001092720084EF91E00E94CF050C94B3
S1130CC0001C089581E00E94A3019C012354310972
S1130CD02138310530F483E895E00E941D0D81E050
S1130CE008959C01295C31092D37310530F48EE8D3
S1130CF095E00E941D0D82E008959C012754314027
S1130D002C37310530F489E995E00E941D0D83E00C
S1130D1008959C01235C31402936310530F484EA7E
S1130D2095E00E941D0D84E008959C012C523240F0
S1130D302D37310530F48FEA95E00E941D0D85E0D2
S1130D4008959C01295A32402238310530F48AEB47
S1130D5095E00E941D0D86E008958B5293408B37D9
S1130D60910530F485EC95E00E941D0D87E008950F
S1130D7080ED95E00E941D0D80E008951F920F9272
S1130D800FB60F9211242F933F934F935F936F935A
S1130D907F938F939F93AF93BF93EF93FF93469863
S1130DA080E090E00E94670A1092F0051092F1052D
S1130DB01092F2051092F3051092F4051092F505C5
S1130DC01092F6051092F7051092F8051092F905A5
S1130DD01092FA051092FB05769A0E946206FF9122
S1130DE0EF91BF91AF919F918F917F916F915F919F
S1130DF04F913F912F910F900FBE0F901F90189518
S1130E0080910201823099F018F4813059F505C0BF
S1130E108330B9F0843031F51EC02898299A2A9A73
S1130E202B98809102018F5F809302010895289886
S1130E3029982A9A2B9A809102018F5F809302014C
S1130E400895289A29982A982B9A809102018F5FF5
S1130E50809302010895289A299A2A982B9881E070
S1130E6080930201089580910201823089F018F480
S1130E70813059F505C08330A9F0843031F51CC0A8
S1130E80289A29982A982B9A84E08093020108953D
S1130E90289A299A2A982B9880910201815080934C
S1130EA0020108952898299A2A9A2B988091020180
S1130EB08150809302010895289829982A9A2B9AA0
S1130EC08091020181508093020108950F931F9332
S1130ED00091F8051091F9052091FA053091FB0570
S1130EE0DC01CB01800F911FA21FB31F8093F80573
S1130EF09093F905A093FA05B093FB051F910F9108
S1130F00089580910101823099F018F4813059F5E7
S1130F1005C08330B9F0843031F51EC02C982D9A69
S1130F202E9A2F98809101018F5F8093010108957B
S1130F302C982D982E9A2F9A809101018F5F80937F
S1130F40010108952C9A2D982E982F9A80910101D1
S1130F508F5F8093010108952C9A2D9A2E982F98D3
S1130F6081E080930101089580910101823089F02C
S1130F7018F4813059F505C08330A9F0843031F577
S1130F801CC02C9A2D982E982F9A84E080930101EE
S1130F9008952C9A2D9A2E982F98809101018150B2
S1130FA08093010108952C982D9A2E9A2F98809160
S1130FB0010181508093010108952C982D982E9A57
S1130FC02F9A8091010181508093010108950F931C
S1130FD01F930091F4051091F5052091F6053091C9
S1130FE0F705DC01CB01800F911FA21FB31F809373
S1130FF0F4059093F505A093F605B093F7051F91BA
S11310000F91089580910001823099F018F4813095
S113101059F505C08330B9F0843031F51EC05C98B1
S11310205D9A5E9A5F98809100018F5F80930001C2
S113103008955C985D985E9A5F9A809100018F5F35
S11310408093000108955C9A5D985E985F9A809100
S113105000018F5F8093000108955C9A5D9A5E9809
S11310605F9881E0809300010895809101018230AE
S113107089F018F4813059F505C08330A9F0843023
S113108031F51CC05C9A5D985E985F9A84E0809309
S1131090000108955C9A5D9A5E985F9880910001C2
S11310A081508093000108955C985D9A5E9A5F98E0
S11310B08091000181508093000108955C985D98AF
S11310C05E9A5F9A80910001815080930001089597
S11310D00F931F930091F0051091F1052091F205F3
S11310E03091F305DC01CB01800F911FA21FB31FC8
S11310F08093F0059093F105A093F205B093F30566
S11311001F910F9108952091FC053091FD054091A8
S1131110FE055091FF05DC010E94710DDC01CB013D
S1131120072E79E0B695A795979587957A95D1F787
S1131130702D492F5A2F6B2F77274093BF00809330
S1131140CF000895E0ECF0E080818068808308950A
S1131150E0ECF0E080818F77808308959B01AC01FF
S113116060E07CE68CED92E00E94490D2F3F63E045
S113117036074105510550F42093FC053093FD05D5
S11311804093FE055093FF0581E071C12E3F67E057
S113119036074105510580F4DA01C901B695A795D2
S11311A0979587958093FC059093FD05A093FE0584
S11311B0B093FF0582E05BC12C3F6FE03607410529
S11311C05105A0F4DA01C901B695A79597958795BD
S11311D0B695A795979587958093FC059093FD0503
S11311E0A093FE05B093FF0583E041C1283F6FE162
S11311F0360741055105A0F4DA01C901689412F8D3
S1131200B695A795979587951694D1F78093FC0585
S11312109093FD05A093FE05B093FF0584E027C1DC
S1131220203F6FE3360741055105A0F4DA01C901F7
S1131230689413F8B695A795979587951694D1F762
S11312408093FC059093FD05A093FE05B093FF05E4
S113125085E00DC1203E6FE7360741055105A0F436
S1131260DA01C901689414F8B695A79597958795FE
S11312701694D1F78093FC059093FD05A093FE0589
S1131280B093FF0586E0F3C0203C6FEF36074105BD
S11312905105A0F4DA01C901689415F8B695A7952B
S11312A0979587951694D1F78093FC059093FD0547
S11312B0A093FE05B093FF0587E0D9C020386FEFF7
S11312C0360761E046075105A0F4DA01C9016894C4
S11312D016F8B695A795979587951694D1F78093A8
S11312E0FC059093FD05A093FE05B093FF0588E0EF
S11312F0BEC021156FEF360763E04607510570F451
S1131300BB27A52F942F832F8093FC059093FD0575
S1131310A093FE05B093FF0589E0A9C021156EEFE7
S1131320360767E046075105A8F4DA01C901072E1C
S113133079E0B695A795979587957A95D1F7702D0D
S11313408093FC059093FD05A093FE05B093FF05E3
S11313508AE08DC021156CEF36076FE04607510512
S1131360A8F4DA01C901072E7AE0B695A7959795F6
S113137087957A95D1F7702D8093FC059093FD05A0
S1131380A093FE05B093FF058BE071C0211568EFB3
S113139036076FE146075105A8F4DA01C901072EA3
S11313A07BE0B695A795979587957A95D1F7702D9B
S11313B08093FC059093FD05A093FE05B093FF0573
S11313C08CE055C0211560EF36076FE346075105E1
S11313D0A8F4DA01C901072E7CE0B695A795979584
S11313E087957A95D1F7702D8093FC059093FD0530
S11313F0A093FE05B093FF058DE039C0211560EE82
S113140036076FE746075105A8F4DA01C901072E2C
S11314107DE0B695A795979587957A95D1F7702D28
S11314208093FC059093FD05A093FE05B093FF0502
S11314308EE01DC0211560EC36076FEF460751059D
S1131440A8F4DA01C901072E7EE0B695A795979511
S113145087957A95D1F7702D8093FC059093FD05BF
S1131460A093FE05B093FF058FE001C080E0809358
S1131470C1008091FC059091FD05A091FE05B091FD
S1131480FF05892F9A2FAB2FBB278093BF00809134
S1131490FC058093D100089522E02093C00020E44D
S11314A02093C40021E02093C3001092C2000E9444
S11314B0AE08089560E177E280E090E00E944C0A73
S11314C080E092E00E9483080E94A2080895CF93CE
S11314D0DF93EC01009739F480E090E00E948308E8
S11314E00E94A80810C0C13084E0D80730F40E94DC
S11314F0A208CE010E94830806C00E94A20880E0D0
S113150094E00E948308DF91CF91089581E0809355
S1131510D70080EA8093D80082E189BD09B400FE37
S1131520FDCF80E98093D8001092E000109201066C
S1131530109202068CE08093E200789408952FB70D
S1131540F89480910106811103C02FBF8FEF089595
S113155083E08093E9008091E80085FD11C082FD5D
S113156004C00BC082FD04C008C0E8EEF0E09BE6B6
S11315709083808185FFF6CF03C02FBF8FEF08953E
S11315808091F1009091E80095FD03C09BE6909353
S1131590E8002FBF08959FB7F8948091010688232F
S11315A089F083E08093E9008091F20081110BC0FF
S11315B02091E80022FF07C025FD05C02BE62093FB
S11315C0E80001C080E09FBF089580910106882350
S11315D089F02FB7F89483E08093E9008091E800C4
S11315E085FF07C0E8EEF0E09BE69083808185FDEF
S11315F0FCCF2FBF0895CF93DF93909101069923D9
S113160009F44DC09FB7F89424E02093E900209199
S11316100306222349F02091E80025FD03C09FBF63
S11316208FEF42C0109203063091E400375E2091A0
S1131630E80025FD25C09FBF9091E400931749F071
S11316409091010691110FC02CC09FBF98819313F4
S113165005C081E0809303068FEF26C090910106B8
S1131660911108C020C0A9EEB0E044E0E8EEF0E03B
S1131670C4EED0E09FB7F8944C93208125FFE5CFCA
S11316808093F1008091E80085FD03C08AE3809394
S1131690E80085E0809300069FBF80E005C08FEFDF
S11316A003C08FEF01C08FEFDF91CF9108951F9298
S11316B00F920FB60F9211248F939F93EF93FF9382
S11316C0E1EEF0E08081108283FF11C01092E90006
S11316D091E09093EB001092EC0092E19093ED0076
S11316E098E09093F000109201061092020682FF97
S11316F013C080910106882379F080910006882325
S113170059F0815080930006811106C084E08093D3
S1131710E9008AE38093E800FF91EF919F918F9114
S11317200F900FBE0F901F9018951F920F920FB637
S11317300F9211240F931F932F933F934F935F9313
S11317406F937F938F939F93AF93BF93CF93DF93C5
S1131750EF93FF931092E9008091E80083FF51C159
S1131760E1EFF0E07081408120813081932F80E0AF
S1131770DC01A22B9D0150816081962F80E0852B96
S1131780A081B08152EF5093E800463009F05CC06C
S113179004C081E28093EB003BC1C6E046E352E023
S11317A0FA01659174912617370719F0495F5F4F65
S11317B020C0FA013296659174918617970719F043
S11317C0495F5F4F16C0FA01349685919491282F92
S11317D0392FFA01369644919B2F80E08A2B8F3F54
S11317E0910519F010F08FEF90E0841728F4482F3A
S11317F003C0C150A9F6CDCFC8EED0E07EEFA1EF73
S1131800B0E010E18881982F9570E1F382FD00C16A
S1131810642F413108F0612F662309F4F6C0C90131
S1131820562FFC010196E491EC935150D1F7862F89
S1131830815090E00196280F391F461B788341118F
S1131840E1CF6031F9F2E4C0453061F48EEF80936A
S1131850E800E8EEF0E0808180FFFDCF206820936F
S1131860E300D6C04930A1F571115BC02093010695
S113187010920206109200068EEF8093E80011E0A9
S113188080E692E0C9EED0E0ABEEB0E06CEE70E042
S11318904DEE50E018839C012F5F3F4FFC010491F3
S11318A00C93002359F0F9012491FB012083FC01DE
S11318B0329603962491FA01208301C0C9011F5F67
S11318C0153041F7EAEEF0E08EE180831082A0C08B
S11318D0483081F4703809F03FC0E8EEF0E08081D0
S11318E080FFFDCF809101068093F1008EEF8093FD
S11318F0E8008EC04132A9F4713AF1F5E8EEF0E067
S1131900808180FFFDCFE3E0F1E0A1EFB0E08191C1
S11319108C9341E0EA30F407D1F78EEF8093E8002E
S113192077C04032C9F4713209F06BC0E8EEF0E0E0
S1131930808182FFFDCFE3E0F1E0A1EFB0E08C9184
S1131940819351E0EA30F507D1F7E8EEF0E08BEF50
S113195080838EEF80835CC0423271F4713209F06F
S113196050C020930206E8EEF0E0808180FFFDCFB6
S11319708EEF8093E8004CC041111AC0E8EEF0E00D
S1131980208120FFFDCF723851F4E9EEF0E080832E
S11319908091EB0085FB882780F9108201C080E0EC
S11319A0E1EFF0E0808310828EEF8093E80030C096
S11319B0413011F0433029F5723019F5232B09F524
S11319C08F779927382F31503430D8F43EEF309345
S11319D0E8008093E900433021F481E28093EB0036
S11319E017C099E19093EB0021E030E0D90102C0E7
S11319F0AA0FBB1F8A95E2F7EAEEF0E0A0831082FB
S1131A0007C081E28093EB0003C078834111FACED2
S1131A10FF91EF91DF91CF91BF91AF919F918F9102
S1131A207F916F915F914F913F912F911F910F91F2
S1131A300F900FBE0F901F901895CF93DF93EC017A
S1131A408991882329F00E94FB0A89918111FBCF97
S1131A50DF91CF910895CF93DF93CDB7DEB764972D
S1131A600FB6F894DEBF0FBECDBF2AE030E0AE0162
S1131A704F5F5F4F0E94BD0DCE0101960E941D0D68
S1131A8064960FB6F894DEBF0FBECDBFDF91CF9141
S1131A900895A1E21A2EAA1BBB1BFD010DC0AA1FAB
S1131AA0BB1FEE1FFF1FA217B307E407F50720F0C3
S1131AB0A21BB30BE40BF50B661F771F881F991F3E
S1131AC01A9469F760957095809590959B01AC0187
S1131AD0BD01CF010895EE0FFF1F0590F491E02D95
S1131AE009940E947C0DA59F900DB49F900DA49F16
S1131AF0800D911D11240895A29FB001B39FC001D0
S1131B00A39F01D0B29F700D811D1124911D0895D2
S1131B101F93FC0199278827BC01E8941191103286
S1131B20E9F3193010F01E30C8F31B3251F01D32A6
S1131B3049F4689406C00E94F10D610F711D811D66
S1131B40911D119110531A30B0F33EF49095809585
S1131B50709561957F4F8F4F9F4F1F910895FB01A3
S1131B60DC014150504030F08D910190801919F4FE
S1131B700020B9F7881B990B0895FA01CF93FF93BE
S1131B80EF93223044F1253234F5C22FE894CA3061
S1131B9049F497FB3EF490958095709561957F4F3D
S1131BA08F4F9F4F2C2F332744275527FF93EF93B5
S1131BB00E94490DEF91FF91605D6A330CF0695DFD
S1131BC06193B901CA01605070408040904051F760
S1131BD016F4CDE2C19310828F919F91CF910C9412
S1131BE0060E592F482F372F262F660F771F881F71
S1131BF0991F660F771F881F991F620F731F841F19
S1131C00951F660F771F881F991F0895DC01FC013B
S1131C10672F71917723E1F7329704C07C916D931C
S1131C2070836291AE17BF07C8F30895F894FFCF8D
S1131C3001010100E100000000080D0A4261636B2C
S1131C4020746F20636D64206D6F64650D0A240039
S1131C500D0A656E61626C652073746570706572DF
S1131C600D0A00285E2032303029002876203230D8
S1131C70302900283C203230302900283E203230E0
S1131C80302900200D0A20646961676F6E616C2041
S1131C906F6B61790D0A002D20646961676F6E6155
S1131CA06C206F6B61790D0A000D0A746F6F6C20E4
S1131CB073746F70200D0A000D0A746F6F6C2069C5
S1131CC06E697420646F6E65200D0A000D0A746FCE
S1131CD06F6C2073706565642073657420746F3A4B
S1131CE0200020203F202068696C6674000D0A3DA6
S1131CF03D3D3D3D3D3D3D3D3D3D3D3D3D3D3D3D10
S1131D003D3D3D3D3D3D3D3D3D3D3D3D3D3D3D3DFF
S1131D103D3D3D3D3D3D3D3D3D3D3D3D3D3D3D3DEF
S1131D203D0D0A0D0A2045696E7A656C7374657001
S1131D303A200D0A773A09766F7220582061636859
S1131D407365200D0A733A097A75720A39636B2038
S1131D5058206163687365200D0A613A09766F72D1
S1131D602059206163687365200D0A643A097A7505
S1131D7072FC636B2059206163687365200D0A0D42
S1131D800A203120756D64726568756E67207374FE
S1131D9065703A200D0A723A09766F7220582061F4
S1131DA063687365200D0A663A097A7572FC636B81
S1131DB02058206163687365200D0A713A09766FB3
S1131DC0722059206163687365200D0A653A097AA7
S1131DD07572FC636B2059206163687365200D0A7A
S1131DE00D0A6F3A09766F7220582B592061636887
S1131DF07365200D0A703A097A7572FC636B20587A
S1131E002B59206163687365200D0A0D0A20546FF5
S1131E106F6C3A200D0A743A2053657420746F6F06
S1131E206C2073706565642028706F746920776511
S1131E307274290D0A693A20696E697420746F6F8F
S1131E406C2028353132290D0A7A3A2073746F7068
S1131E5020746F6F6C090D0A0D0A7920616B746927
S1131E607669657274206469652074726569626557
S1131E7072206E616368206E6F746175730D0A451C
S1131E80534320746F206C656176652067636F64CB
S1131E9065206D6F64653F3A202068696C66652033
S1131EA00D0A00756E62656B616E6E7465722062F8
S1131EB0656665686C20202D20203F2066FC72201A
S1131EC068696C666500636D64000D0A436F6D6D2F
S1131ED0616E64206C696E65206D6F6465202D20D1
S1131EE04F4B200D0A0068656C70000D0A204120DC
S1131EF077696C642068656C70206D657565206118
S1131F0070706572617273202D20206E6F740D0ADB
S1131F102400757074696D65000D0A757074696DBF
S1131F20653A006C6564206F6E000D0A206C656470
S1131F302065696E6765736368616C746574200DF0
S1131F400A24006C6564206F6666000D0A206C65C7
S1131F5064206175736765736368616C746574206C
S1131F600D0A24006D6F76657820006D6F766579B3
S1131F7020006D6F76657A200067636F6465005991
S1131F806F752061726520696E2047636F64652DEB
S1131F904D6F6465206E6F7720202D2020455343BC
S1131FA020746F206C65617665200D0A3E006578AB
S1131FB06974000D0A20436F6D6D616E64206C6955
S1131FC06E6520636C6F73656400626F6F74000DDF
S1131FD00A203D3D3D3D3D3D3D3D3D3D3D3D3D3D7D
S1131FE03D3D3D3D3D3D3D3D3D3D3D3D3D3D3D3D1D
S1131FF03D3D3D3D3D3D3D3D3D3D3D3D3D3D3D3D0D
S11320003D3D3D3D3D3D3D3D3D3D3D0D0A7C7C0915
S11320100920426F6F746C6F61646572206D6F6428
S113202065090909207C7C0D0A203D3D3D3D3D3D6F
S11320303D3D3D3D3D3D3D3D3D3D3D3D3D3D3D3DCC
S11320403D3D3D3D3D3D3D3D3D3D3D3D3D3D3D3DBC
S11320503D3D3D3D3D3D3D3D3D3D3D3D3D3D3D3DAC
S11320603D3D3D20000D0A20756E6B6E6F776E202E
S1132070636F6D6D616E6420273F2720666F722049
S113208068656C700D0A24000D0A2074797065204F
S113209027636D642720746F20656E7465722063F6
S11320A06F6D6D616E64206C696E65206D6F646523
S11320B00D0A000D0A627574746F6E2031000D0AEA
S11320C0627574746F6E2032000D0A627574746FD9
S11320D06E2033000D0A627574746F6E2034000D27
S11320E00A627574746F6E2035000D0A627574741B
S11320F06F6E2036000D0A627574746F6E2037009F
S11321000D0A756E61626C6520746F20726561647E
S10B211020627574746F6E0007
S9031144A7
